:020000021000EC
:10800000004000208D000200C9000200CB000200E9
:108010000000000000000000000000000000000060
:10802000000000000000000000000000CD00020081
:108030000000000000000000CF000200D10002009C
:10804000D30002007DAB010099FD0100D3000200C6
:10805000D3000200000000008DFE0100D3000200EA
:10806000D300020001F90100FDFD0100D300020070
:10807000D3000200D3000200D3000200D3000200AC
:10808000D3000200D3000200D3000200D30002009C
:10809000D300020001F50100A1DC0100D3000200C1
:1080A000D3000200D3000200000000000000000026
:1080B00000000000000000000000000000000000C0
:1080C00010B5064C2378002B07D1054B002B02D0AE
:1080D000044800E000BF0123237010BD20220020CF
:1080E000000000002CA50200044B10B5002B03D0AB
:1080F0000349044800E000BF10BDC0460000000076
:10810000242200202CA50200164B002B00D1144B7A
:108110009D46402292029A1A924600218B460F46B3
:108120001348144A121A10F064FF0F4B002B00D0B2
:1081300098470E4B002B00D09847002000210400E8
:108140000D000D48002802D00C4800E000BF0CF0E4
:10815000CFFA2000290010F0D2FC0CF0B3FAC04690
:1081600000000800004000200000000000000000A7
:1081700018220020D42A0020000000000000000087
:1081800010B50400034B036040300DF0B2FA20003C
:1081900010BDC046B092020070B5002007F0BEFAD4
:1081A00002250CF085FB00246D420CF0A5FB0300BA
:1081B00006490748A2000B4002D5013B2B4301337F
:1081C0000133013413500F2CEFD170BD010000803A
:1081D0003C220020F0B5144887B000F037F9FFF7D3
:1081E000DBFFC8270600051D7F00104902A810F01C
:1081F0004EFF340023680E49012B00D00D4902A820
:10820000043410F02CFFAC42F4D102A901A800F014
:1082100049FF3A0001A9084802F032F901A80DF01F
:1082200068FA0435E1E7C0467822002078A202000F
:10823000C89E0200CB9E02006423002010B5054CAE
:10824000200000F043F8044A0449200010F071FEB9
:1082500010BDC0467822002000200020618201006D
:10826000EB23194A9B0010B5C2501C330400C01800
:108270000DF03FFAF1239B00E0180DF03AFA842349
:108280009B00E01801F076FA2000C530FF3000F0C6
:1082900095FF20008D30FF3001F032FA200065306C
:1082A000FF3001F02DFA2000EC3001F005FF200036
:1082B000D03002F0DBFA2000643007F04DF9201DC9
:1082C000FFF75EFF200010BDAC9402001423F0B550
:1082D000040095B0009319221821043002F09EFC8E
:1082E000220027006432B43713211000119207F0E6
:1082F0003FF938000EF0A4F92200B83210921E2186
:10830000002210980DF053FE2000D03002F0CEFA7B
:108310002200EC3212920621494A129801F0F0FE36
:1083200020000026012365301A0000961121FF303D
:1083300001F0F2F920008D300096012302221A216B
:10834000FF3001F0E9F925002000C535B530FF35D3
:108350001A2302220121FF3002F066FB1099042348
:108360003A22280000F0DAFF84229200A218139229
:1083700005231D22019300923B002A0010991398B7
:1083800001F0EEFB96229200129BA01813992A008E
:1083900001F0C0FD99229200A01839001C2202F0C1
:1083A00069FD19239F220F93013B0E93013B0D930F
:1083B000013B0C93013B0B93013B0A93013B099357
:1083C000013B0893013B0793013B0693013B059357
:1083D000013B0493013B0393013B0293013B019357
:1083E0009200013BA01800930822013B07210DF0E9
:1083F000E6FDEB239B00E018390003F0DBF8F323E4
:108400009B00E0181D2102F055FBFD239B00E65068
:1084100011982670032110F0A2FA230022002000F8
:1084200008499C33A0321C6011605660064A8030B7
:108430005A610221012207F0DBFD200015B0F0BDDA
:10844000B8920200415302002B5302000123F0B501
:10845000067889B004001E4000D0ADE0FD20800504
:1084600000F0DCFC2300D0331800029300F0B0FAD7
:1084700000F0A6F9282000F009FD050010300DF0ED
:10848000C9F94E4B18202B6000F000FD07004C4B43
:108490000460082231000C300693079610F0A9FD05
:1084A00006A9381D082210F088FD464B29007B6183
:1084B0001223AF60EE60AB802E626E62029802F013
:1084C0006DF9002805D028000DF0C9F8280000F04B
:1084D000FDFC0123227864201343237000F094FBF9
:1084E000002523006533FF33180003930DF03DFB97
:1084F00000283CD020008D30FF300DF036FB0028E6
:1085000035D00A2D33D06420013500F07DFB0A2DD3
:10851000E7D12D492D4800F057FCFD27EB23BF0084
:108520009B00E618E359002B1AD100F05DF801001A
:1085300004A800F0B7FD05A80CF074FF012305AAFC
:1085400004A900933000029B03F088F805A80DF001
:10855000D0F804A80DF0CDF8ED239B00E358E351CB
:108560002100039AEC31300003F01EFAB9E7FD2533
:1085700015491648AD0000F027FC6659002E1BD1A6
:1085800000F032F8010004A800F08CFD05A80CF002
:1085900049FFEB239B00E01805AA029B04A9009663
:1085A00003F05CF805A80DF0A4F804A80DF0A1F8FC
:1085B000ED239B00E358635109B0F0BDFD030000BB
:1085C000B35302007353020000200020001C00205F
:1085D000BFF34F8F024B034ADA60BFF34F8FFEE7C2
:1085E00000ED00E00400FA05F0B58DB005AF1922EA
:1085F0001549380010F0E1FC0022144B05245A7193
:1086000080225205566E01222500019402920393A6
:108610000199300007F04AFE0800029907F0C0FDFA
:10862000019B03996B430193029B361A6B430293A0
:10863000631E2C1B6C433C19225C1C1ECA54E7D1E0
:1086400008000DB0F0BDC046049F0200022A0020C1
:10865000F0B597B018220021060010A810F0C9FC50
:10866000132110A810F0BAFA032110A810F085FB0E
:108670004C4B1B68002B00D10133DBB202934A4AFA
:10868000012300210BA807F0EDFB484B9E4200D9C7
:10869000002672B6464B64211D68464B3000079396
:1086A000052407F007FE60435030281808900A217F
:1086B000300007F0FFFD0A2107F0E2FE6143503170
:1086C0006918099130000A2107F0DAFE802361431E
:1086D0000024503169189B010A910193029B002BE1
:1086E0005DD0002500272E1F07AB9B190593032C97
:1086F00003D1802300249B01019307AB5B592E4AD1
:1087000003936300D31804930023190006205843F1
:10871000049A16187678B4466246039EB25C102618
:108720009446049A105C62460641164202D001202B
:10873000984001430133092BE8D1C9431F4B059AE7
:10874000090119401268039B934225D1312F23DC84
:1087500000210BA810F0E3FBFA23159A1199DB0016
:10876000106801421BD0013B002BF9D1019B013461
:108770005B000193FA230137E4B25B009F42B6D15C
:108780000435102DAED1074B1B68002BA6D0029FDD
:10879000013FFBB20293A1E7019B1943D9E7FFF721
:1087A00017FFC04674260020F0FF0000E70300001A
:1087B00004200020539F02001D9F0200F01F0000B4
:1087C000F8B50023124C23600CF04DFE002808D0B1
:1087D000042120000CF043FE002801D00D4B236043
:1087E000F8BD0122A12704250B4B0C491A60226811
:1087F000FF0048604E68002EFCD0DE591202013D99
:108800003243002DF5D1226001225A60E8E7C046CC
:1088100070260020ED5EBC0B00D00040FCD0004074
:10882000F0B585B01F000AAB1B8806000291150049
:108830000393002F1CD0282000F028FB6B46040077
:108840001989039BAAB200933B000CF0F1FE336838
:1088500021005B683000984700280AD0002C05D022
:1088600020000CF0FCFE200000F030FB024800E08D
:10887000024805B0F0BDC04616FCFFFF17FCFFFF25
:108880000B4B70B51C68002C10D0656D00F0C6FB5A
:10889000A36C002901D1834206D820000CF016FEFB
:1088A000044920000CF000FE2C00ECE770BDC0462F
:1088B0007C2600209C260020F0B593B007932A4B1D
:1088C00004AC1E68049005910692002E4AD0274BF6
:1088D000258867881C6800230293002C2ED0636DC6
:1088E00023480393A36C9AB2A36C1B0C99B28542E4
:1088F00014D12048824211D1002B01D0B9420BD1B2
:10890000029B002B08D120000CF0E0FD1A4920004A
:108910000CF0CAFD01230293039CDEE7002A01D07C
:108920009542F9D1002B01D0B942F5D120000CF0CD
:10893000CDFD114920000CF0B7FDEDE70F4BEB1812
:10894000012B0FD910233A00009329000C4B08A8E3
:108950000CF06EFE336808A99B683000984708A8A1
:108960000CF07DFE13B0F0BD78260020A826002074
:10897000FE030000FF0300009C26002002FCFFFF16
:10898000B988010010B572B60B4B1C68002C08D0DA
:1089900020000CF09BFD0023E364084B2000E36300
:1089A00010BD62B65C2000F071FA5C220021040068
:1089B00010F01FFBEFE7C046A0260020004000207B
:1089C000024B1878012318407047C046082A00203F
:1089D000F7B50600FFF7F4FF051E33D11A4C2660E9
:1089E000FFF7D0FF194B1A4918600CF05DFDFFF737
:1089F000C9FF184B1860184B4363184B83632068FA
:108A000000280ED0C027164E2A00330015490097C3
:108A1000FFF706FF009733002A0013492068FFF78D
:108A2000FFFE0C2000F032FA0023838083710F4B8D
:108A300003600F4B836000F009FB01230D4A11789E
:108A40000B431370F7BDC04678260020AC260020EB
:108A50009C260020A4260020FC3F00209355020005
:108A6000B9880100FF030000FE030000D892020055
:108A700081880100082A0020F7B506000D001700C4
:108A80000193002802D100242000FEBD0029FAD065
:108A9000FFF778FF041EF6D0074B019A4363066088
:108AA00045608760054B002A00D0054BA36305494C
:108AB00020000CF0F9FCE7E7FC3F00205D550200C8
:108AC0007B5502009C260020024B18684342584107
:108AD0007047C0469C260020002310B504499C0026
:108AE0006258002A01D00133F9E76050100010BD30
:108AF00084260020002310B5044A99008C58844233
:108B000001D00133F9E70020885010BD84260020F1
:108B100010B50024084BA200D058002802D00368EA
:108B20005B6898470134062CF4D1044B1B68002B7A
:108B300000D120BF10BDC046842600209C26002006
:108B4000F8B5FFF73DFF00281BD0294D2C68E36CDA
:108B5000DA0717D502263343E3640423254F386828
:108B6000C26C1343C364636BC3630CF0D5FC3868F9
:108B7000416C03F016FB2868C36C334201D003F04C
:108B80004AFBF8BD1C4F1D4E3A683168002A1ED1C1
:108B900029602A688A4208D11B0706D52C60FFF796
:108BA000B7FF3B68002BFAD02B6029688C42E8D0D5
:108BB0003368994214D1124B4B63124B8B632000E4
:108BC0000CF0AAFC2968626C4B6C20000DE0206D53
:108BD000B84203D1606D002800D002002A60D8E7B7
:108BE0009C42ECD1002210004B6C03F099FAC8E7CC
:108BF000AC260020802600209C260020A4260020F1
:108C0000FC3F00209355020070B50500FFF7D8FE29
:108C1000002803D1280010F0A4F870BD0C4B1C688C
:108C2000E36CDB0706D5FFF7ADFE0A4B18600028A2
:108C300000D0040000F0F2F92D18A56420000CF01B
:108C400045FC054920000CF02FFCFFF779FFE4E715
:108C5000AC260020802600207C260020F0B51E4B8C
:108C60001E4F1C683B6885B006000391002B30D076
:108C7000FFF7A6FE00282CD0E36CDB070ED5FFF72C
:108C800081FE174B051E186008D00CF01FFC15491B
:108C900028000CF009FC2C00FFF752FF039B20007A
:108CA0001B043343A3640CF011FC20000E490CF0AC
:108CB000FBFB0E4B0024F318012B07D9C0230093B4
:108CC000039A0B4B31003868FFF7AAFD200005B06E
:108CD000F0BD084CFAE7C046AC26002078260020FC
:108CE000802600209C260020A826002002FCFFFFF2
:108CF000B988010016FCFFFF10B5FFF761FE0028E0
:108D000009D0054C20680CF0E1FB044920680CF008
:108D1000CBFBFFF715FF10BDAC260020A0260020DE
:108D2000F7B507000D0000282ED0FFF749FE0028F8
:108D30002CD00724164E3068C36C1C4007D0154A4F
:108D4000290038000CF0D9FB00242000FEBD03F000
:108D50004AFA02213268D36C1940019103D00321F1
:108D60008B43D364F1E701242343D3642800B8473D
:108D70003268D36C1900A143D164019C5B07E4D530
:108D800028000CF0F2FBE0E7034CDEE7034CDCE7E5
:108D9000AC2600206B55020017FCFFFF16FCFFFFFE
:108DA000020010B5014B12CB12C210BDB02600203C
:108DB000034B1A68034B1A607E225A607047C04604
:108DC00004200020B026002070B5104D2B78022B17
:108DD00018D0814218D90B1A072B15D90C00032380
:108DE00004431C4010D172B62A78094BD200D050EF
:108DF000981841600CF0D3FB2B7801332B7062B6CE
:108E0000200070BD0348FCE70348FAE7092A002068
:108E1000B826002013FCFFFF17FCFFFF70B50021F0
:108E2000041C07F04FFB002828D1FE21201C8905D7
:108E300007F052FB002821D104300BF07DFC050027
:108E40000F48401B08F028FB211C07F0C5FF07F066
:108E500077FB03239843040028000BF077FC2000E5
:108E60000BF06AFC002804D1203C002CF7D1054807
:108E700003E00119FFF7A8FF002070BD0248FCE7DE
:108E80000038002013FCFFFF17FCFFFF70B5060041
:108E900000250C4B1B78AB4209DD0B49EB00C918D0
:108EA00030000CF084FB041E09D10135F1E73000DD
:108EB0000BF042FC041E02D11420FFF7C9FB200076
:108EC00070BDC046092A0020B826002070B50028D1
:108ED00013D00D4B0D491C7800239C4210DDDA00A5
:108EE000555885420AD28A185268824206D9802390
:108EF000043802681B061343036070BD0133ECE7BE
:108F00000BF024FCF9E7C046092A0020B82600200F
:108F100070B5051E14DD0B4E0B4C3368002B02D0D0
:108F200020680FF099FDFA2120680024074B890082
:108F30008361C462694335600FF096FD200070BD07
:108F40000348FCE7C8260020F8260020F98F01001E
:108F500017FCFFFFF8B5114F06003D68002D0AD140
:108F60003020FFF793FF040006F026FB0C4BA561B1
:108F70002360E5623C600B4D2B68002B09D110206B
:108F8000FFF784FF04000FF030FD20002C600FF08D
:108F900006FD3000FFF7BCFFF8BDC046F8260020F4
:108FA00050980200F4260020014B18687047C04614
:108FB000C826002070B50D4C2368002B03D00C4B45
:108FC0001B68002B02D10620FFF7C4FF20680FF0BA
:108FD000FDFC02000749C3170D684E685219734122
:108FE00020680A604B600FF0F7FC70BDF42600208B
:108FF000F82600201822002010B5FFF7DBFF002420
:10900000054BA200D058002802D003681B6898477F
:1090100001340A2CF4D110BDCC26002010B5FFF786
:10902000C9FFFA22034B920018685968002307F021
:1090300067FA10BD1822002010B5FFF7BBFF024BE6
:109040001868596810BDC046182200200B4B10B597
:109050001B680400002B03D0094B1B68002B02D1B6
:109060000620FFF777FF0023064A9900885800285A
:1090700001D00133F9E78C5010BDC046F426002022
:10908000F8260020CC260020002310B5044A9900C1
:109090008C58844201D00133F9E70020885010BD7C
:1090A000CC26002010B50400002902D00B78002B3C
:1090B00003D1034B2360200010BD0CF021FBFAE725
:1090C000E8920200F8B504000E00150000290AD04D
:1090D0000B78002B07D0002A05D0080097B20FF0BC
:1090E000DEFF874203D90B4B23602000F8BD681DCB
:1090F000FFF7CCFE20600CF0E5FB23682A005F80C0
:1091000023683100181D0FF058FF23685D190023F4
:109110002B71EAE7E8920200014B03607047C046FA
:10912000E892020010B50548054C20600CF0CDFB1C
:10913000044A054920000FF0FCFE10BDE892020031
:10914000FC26002000200020F3560200084B73B5D7
:109150001C680500002C0AD001002668083108228E
:1091600068460FF02AFF0CCD31682000884773BD98
:109170000027002010B5054C012120000CF099FBC0
:10918000034A044920000FF0D4FE10BD042700203C
:10919000002000206F5802000388074A10B5012004
:1091A000934208D0834202D00020DB0703D41E2064
:1091B000FFF74EFA002010BDFFFF000010B50400BD
:1091C000034B08330360FFF795FC200010BDC04639
:1091D00030930200FA2270B5438992005343314A1A
:1091E00031491400050038348B421BDC2F498B4277
:1091F00018D82F49083C8B4214D82E49083C8B4282
:1092000010D82D49083C8B420CD82C49083C8B4285
:1092100008D82B49083C8B4204D82A4914008B42B9
:1092200000D90834284B2A7B1E1D042A03D89E1C13
:10923000022A00D81E00FA212068890006F0B0FF3B
:10924000337868812B7300222A2128000CF061FBFF
:10925000002801D01D4870BD10222B2128000CF0E1
:1092600058FB0028F6D101222D2128000CF051FBDB
:109270000028EFD101222E2128000CF04AFB002803
:10928000E8D172780E2128000CF043FB0028E1D1D0
:10929000012223792A211A4328000CF03AFB0028E6
:1092A000D9D0D7E7F092020000C409000071020093
:1092B00080380100204E00001027000088130000B5
:1092C000C4090000E204000033A102000EFCFFFF0D
:1092D0007FB515000F226A4404001E001170002D96
:1092E00016D0002B14DD012301890093006B01F0DF
:1092F000D1F9002802D0074804B070BD0090218940
:1093000033002A00206B01F07BF90028F4D0F2E74B
:109310000148F1E70EFCFFFF17FCFFFFF7B5060061
:10932000002501931E4B143608330400036085802A
:109330008571C581058245820F000092290018229F
:1093400030000FF056FE1C2130000FF047FC6B463A
:109350009B880221A3806B461B8822002381142353
:10936000A5712173A563A58763813E3213782763B6
:109370008B43F1310B4013702300957295810135B9
:10938000221DD5870833A21DD5872000DD87FFF772
:1093900021FF002802D1A3791D43A5712000FEBD45
:1093A0003093020030B50425837987B004002B4246
:1093B00004D1FFF791FBA3791D43A571A36AA269AC
:1093C0001B6800251A4208D106236A4601212000A5
:1093D000FFF77EFF051E03D0114D280007B030BDFA
:1093E0006B460222042069469A561856237BD20007
:1093F0005A43228202220978C00049B2C900594367
:1094000043436382A379E1819343A37120000CF06D
:109410008EFA0123A1881A0002A80CF005FADCE7F5
:109420000EFCFFFFF8B50400FFF7BCFF0E22A35EA1
:10943000794F5B42BB4251DA23003E331B789B07D6
:109440004CD50125210028003E310B785A08904365
:1094500002000220AA40834313430B702000FFF751
:10946000A1FF1022A35E5B42BB4248DA23003E33D9
:109470001B785B0743D50125210028003E310B787E
:109480009A08904382000420834313430B70260004
:109490002000FFF787FF1222A35E4836BB423EDA68
:1094A00023003E331B781B0739D5210001223E31B2
:1094B0000B78D80882430820D200834313430B70F3
:1094C0003378032B3BD80133DBB23370012B00D050
:1094D0008DE0230000224A331A8030E02000FFF79D
:1094E00061FF0E22A35EC8225B4252000025934218
:1094F000B4DD23003E331B789B07A2D5AEE72000E6
:10950000FFF750FF1022A35EC8225B425200934235
:10951000BDDD23003E331B785B07ACD5B7E72000E9
:10952000FFF740FFC8231221625E5B009A4204DD10
:1095300023003E331B781B07B7D5002DC0D13278EE
:10954000002A14D02100270001254A310B883E371C
:1095500001339BB20B803878AC46054055D01D2BAB
:1095600005D963469843002338700B803370200080
:109570000CF049FA294A0723904244DD2000FFF706
:1095800011FF0E23E25E264E52420323B2423ADB23
:10959000C8252000FFF706FF0E23E25EAD00524211
:1095A0000423AA422FDC2000FFF7FCFE1023E25E1A
:1095B00002235242B24226DB2000FFF7F3FE1023C3
:1095C000E25E01235242AA421DDC2000FFF7EAFEC0
:1095D0001223E25E0523B24215DB2000FFF7E2FE14
:1095E0001223E25E0623AA420DDC00230BE0042BCB
:1095F000A5D122003E321178033B0B4313700023A8
:109600004A3423800B331800F8BD092BAFD9013A37
:109610000D803270ABE7C04670FEFFFFFF700200A6
:10962000E0FCFFFF70B5C369C1681A68451D8AB0C8
:109630000400EB7F114255D0002B58D1EB7F082B53
:109640000DD90122A379134209D11343A371A18833
:10965000130006A80CF0E8F8FFF7E0FC2062EB7FAF
:10966000012B23D80123A2791A421FD00025A188FB
:10967000A571022202A80CF0D7F8A31DDE7F012EEF
:1096800014D1FFF7CBFC2B00226A801A994100907D
:109690000191019BA188AB4203D1174B009A9A42DA
:1096A00027D90123042206A80CF0BEF80322A379CF
:1096B0001340012B14D1FFF7B1FC0023226A801A5A
:1096C0009941994202D10D4B984209D90223A279BE
:1096D000A1881343A3710522012306A80CF0A4F866
:1096E0000AB070BD0B2BA9D80133EB77A6E7013B7D
:1096F000FBE733000322D6E7E7030000DB050000A9
:1097000010B50400034B08330360FFF7BDFC2000D5
:1097100010BDC04648930200F0B5070000250E00BA
:1097200085B002930AAB1B7808370393104B0400F3
:109730000833036001928580857129001822380062
:109740000FF057FC039A310038000FF04CFA6B46CB
:109750006A469B88127AA380A31DE671DA77631D9F
:1097600025622000DD77FFF771FC200005B0F0BD19
:109770004893020010B50400034B08330360FFF761
:10978000B9F9200010BDC046B89302007FB515009E
:109790000F226A4404001E001170002D16D0002B09
:1097A00014DD012301890093C06B00F073FF0028D2
:1097B00002D0074804B070BD0090218933002A0010
:1097C000E06B00F01DFF0028F4D0F2E70148F1E75C
:1097D0000EFCFFFF17FCFFFF002330B585B003AC84
:1097E000217001890093050001332200C06B00F055
:1097F00051FF002802D0094805B030BD20802989DA
:10980000009002232200E86B00F0FAFE0028F2D15B
:10981000237860781B02184300B2EDE70EFCFFFFCF
:1098200013B56B46DC1D0023220023700133FFF7C4
:10983000ADFF002801D1207816BD0148FCE7C046E5
:109840000EFCFFFFD0B504000CF0B7F9E268A36985
:10985000981A09F06FFA06000F002369E069C01A30
:1098600009F068FA32003B0009F0B2FD0022104B0B
:1098700008F070FC0F4A104B08F06AF909F0E6FA9C
:109880000021041C06F014FE002804D0201C0B4903
:1098900006F030FF041C201C09F086FA02000B00C1
:1098A0000020074908F0C8FE09F00EFAD0BDC046F6
:1098B00000806640EA2E4454FB2109400000B44376
:1098C00000807640F0B5050085B0006C0CF038F9EA
:1098D000061C286C0CF02BF90221071C28000CF048
:1098E0009DF90221039028000CF0AAF907F08AFDE7
:1098F0000221041C28000CF0B5F907F083FD051CBB
:10990000301C09F027FD0290301C09F0E5FC0190A5
:10991000381C09F01FFD061C381C09F0DDFC071C73
:10992000039807F06FFD391C07F056FA311C071C2D
:10993000201C07F051FA029907F04EFA011C381C5E
:1099400006F0D8FE311C071C281C07F045FA0199C7
:1099500007F042FA011C381C06F0CCFE0299061CE6
:10996000281C07F039FA0199051C201C07F034FA6D
:10997000011C281C07F062FB311C09F02DFD0D496C
:1099800007F02AFA09F010FA0B4A0C4B08F0E0F83D
:1099900009F05CFA0021041C06F08AFD002804D0BE
:1099A000201C044906F0A6FE041C201C07F00AFD3A
:1099B00005B0F0BD0000B443EA2E4454FB21194029
:1099C00070B50022102104000CF0E9F81B4D0028AE
:1099D0002DD1032608212000FFF722FFA84226D020
:1099E000304226D1FA216389890059435023144A11
:1099F000D518D058884204D3D518083B1800083031
:109A0000F7D1FA212868890006F0CAFBA0226081FC
:109A1000112120000CF0C3F8002808D101222B7975
:109A200010211A4320000CF0BAF8002800D0034897
:109A300070BD6420FFF7E8F8CCE7C0460EFCFFFFDE
:109A4000609302007FB50425837904002B4218D16E
:109A500002260CF0B2F8A379A188B3432B43A3717B
:109A60000622012368460BF0DFFEA0790300304098
:109A7000AB43A37143425841034B4042184004B0EA
:109A800070BD0248FBE7C04614FCFFFF15FCFFFF5A
:109A900010B5837904005A070DD49B0701D4FFF752
:109AA000D1FF236C2000002B02D0FFF70BFF10BD6D
:109AB000FFF7C8FEFBE70148F9E7C04615FCFFFFCA
:109AC00070B5466C86B001AC050001916260A36080
:109AD000002E0CD00B4905A8FFF7E4FA0C23220056
:109AE00005A930000CF0EBFD05A80BF002FE2B00E1
:109AF0000C3307CC07C30223AA791343AB7106B01A
:109B000070BDC04639A10200642330B50400028153
:109B1000438185B08180FFF753FF0222A379606CF7
:109B20009343A371002813D00C490CF08FFD051E40
:109B30000ED001000C22103101A80FF03EFA2000D7
:109B40000199029A039BFFF7BBFF2800FFF7BEF9BC
:109B50000123A2791343A37105B030BD39A10200DE
:109B6000F7B5009308AB1B880400019309AB1D886F
:109B700000230F0016000D4A8380083283710260B3
:109B8000C360036143618361C36103621D212430AB
:109B90000BF0F8FF009BE763266429002000636454
:109BA000019AFFF7B1FF2000FEBDC046B893020046
:109BB00082B0F0B50400A5B064202B932A920FF078
:109BC000D0F804220C2109A802F086FB2422CC49FB
:109BD0001BA80FF0F2F9052206A811000DF03DFEBA
:109BE000C84907A802F024FCA06800F081FBA56822
:109BF000C54918A8FFF756FA782218A9280000F0DE
:109C0000A5FC18A80BF075FD6E256420013D0FF032
:109C1000A8F8002DF9D1A06800F06AFBA0680CF04C
:109C2000C1F9012160680BF002FF012107006068A3
:109C30000BF010FF06000A200FF093F80022B34B40
:109C400003929F4210DB013203923A00C8320BDBD1
:109C5000C822042192000391974205DC032203925B
:109C6000C82F01DC013A039200279E420CDB33002F
:109C70000137C83308DBC82303379B009E4203DC4F
:109C8000013FC82E00DC013F06A80DF0DDFD0026D7
:109C9000032373431BA9CA189078002805D0C95C18
:109CA0005278FF2306A802F057FB01360C2EEFD1A5
:109CB0006B463AB20C21595E06A8FF2302F04CFB1A
:109CC0000023A06800931A00743006A90DF0CCFDA3
:109CD000002304930323049A039853431BAA995C1B
:109CE000814237D1D31805935B78BB4232D1059BB3
:109CF0009E78002E2ED1310020680BF08FFF07F0E8
:109D000081FB3200031C290009A80CF061FF31001F
:109D100020680BF095FF07F075FB0122031C29005A
:109D200009A80CF055FF310020680BF09BFF07F0ED
:109D300069FB2900031C022209A80CF049FFFE233D
:109D400003229B05290009A80CF042FF0123059A74
:109D5000ED189370049B013304930C2BBAD164204B
:109D60000EF0FFFF0B2D00DC5BE709A80CF01CFFD9
:109D7000012201000CA802F0AFFA002509A80CF09E
:109D800013FFA8423CDD2900002209A80CF00EFFB9
:109D90000022061C290009A80CF008FF011C301C39
:109DA00007F01AF82900061C012209A80CF0FEFE93
:109DB0000122071C290009A80CF0F8FE011C381C20
:109DC00007F00AF8311C06F095FC2900061C022257
:109DD00009A80CF0EBFE02222900071C09A80CF0D0
:109DE000E5FE011C381C06F0F7FF311C06F082FC72
:109DF0002900031C00220CA80CF0EAFE0135BDE787
:109E000009AA1100012318A80CF0FCFE18A90FA83C
:109E10000CF055FF18A80CF0ECFE0CAA09A912A82A
:109E200001230CF0EFFE002312AA0FA915A80CF0D5
:109E3000E9FE002215A811000CF0B8FE0022061C55
:109E4000012115A80CF0B2FE0022051C022115A864
:109E50000CF0ACFEFC21071C8905301C06F0BCFF91
:109E600007F0B0FAFC21060018908905281C06F0BE
:109E7000B3FF07F0A7FAFC21050019908905381CEB
:109E800006F0AAFF07F09EFA2A00030031001A909C
:109E90002068FFF715FEA0680CF084F807A908A851
:109EA000A5680DF0C9FC0022194B009208A9019386
:109EB0002800130000F0BAFA08A80DF0B0FCFA2050
:109EC00080000EF04EFFA0680CF06CF815A80CF0A6
:109ED00090FE12A80CF08DFE0FA80CF08AFE0CA8C4
:109EE0000CF087FE07A80DF09AFC06A80DF097FC71
:109EF00009A80CF07EFE25B0F0BC08BC02B01847E3
:109F000044A1020068A10200ADA10200E0FCFFFF35
:109F1000DC050000F7B583601D4B05001F6801607C
:109F20004260002F31D02820FEF7B0FF040010302F
:109F30000BF070FC174B18202360FEF7A7FF0022E0
:109F40000600154B01920560083200210C30009389
:109F50000FF04FF808226946301D0FF02EF80F4B16
:109F600000227361C223A3803B68E260A660226284
:109F700062625B68210038009847002805D0200005
:109F80000BF06DFB2000FEF7A1FF2800FEBDC046D0
:109F90000027002005000600B19B01007D5C020047
:109FA000F0B5040085B0637A9C46002B04D12000F4
:109FB0000BF08FFE05B0F0BDA37A266F019310233E
:109FC000019AF35600259B1801229A402900F36854
:109FD00003920293029BAB4231DDB368019A6B435B
:109FE0009B1872695B00E77AD3181A785878E3797E
:109FF000012F14D15F1E3F1A10003A005B0043434B
:10A00000606F8218D3189B79634500DD6346627BDD
:10A010001A4202D00123AB4019430135DAE7022F7F
:10A0200005D15F1EBA1A277A013F381AE6E7032FD7
:10A03000E4D1277A013FBF1A02003800DEE711237E
:10A04000C943F356606C994023691940039B194337
:10A050000EF065FFA27B072AACD8637B0C495B003E
:10A060006373531CDBB290004158A373022A03D8D8
:10A0700008000EF06BFE96E7064B200023630023DA
:10A080006363054BE462236414300EF0EDFC91E74A
:10A09000D0930200A19F0100BD5C020010B5040036
:10A0A000044B03600EF0D8FC200005F09BFA200062
:10A0B00010BDC0465098020010B504000E4B083386
:10A0C0000360FEF7E1FF200074300DF0A8FB2000D4
:10A0D00060300DF0A4FB200058300BF00AFB20008C
:10A0E00050300BF006FB2000044B14306361FFF787
:10A0F000D5FF200010BDC046F093020084980200F6
:10A10000F8B500250400324B858008330360857163
:10A11000143016000F0005F04FFA20002D4BE562B9
:10A12000636125645030FEF7F7FF20005830FEF7DA
:10A13000F3FF2000603002F009F920000423F25EF2
:10A1400033682667590009B274300DF086FB336816
:10A15000226FE37173680126237210236581A78043
:10A160002561D35691685918994204DD3000984012
:10A1700001330543F8E711230120D356D16859185C
:10A18000994206DD02009A4026690133324322617A
:10A19000F6E71420FEF77AFE226900212A43012304
:10A1A000060005F05FFEFF23220063720133A381E6
:10A1B000002348326664A37320001370A366FEF781
:10A1C00045FF0123A27920001343A371F8BDC046C7
:10A1D000F093020084980200F0B5437A85B0040041
:10A1E000002B04D120000BF074FD05B0F0BD01225E
:10A1F000837A11009C461023066F0025F3560392C4
:10A200006344994002912900F3680193019BAB429A
:10A210002CDDB36872696B4363445B00E77AD31843
:10A220001A785878E379012F10D15F1E3F1A100079
:10A230003A005B004343606F8218D3189B79002B70
:10A2400002D0039BAB4019430135DFE7022F05D154
:10A250005F1EBA1A277A013F381AEAE7032FE8D1BE
:10A26000277A013FBF1A02003800E2E71123C943F1
:10A27000F356606C994023691940029B19430EF014
:10A280004EFE667AB31EDBB2FC2B14D8FEF78CFEB2
:10A290000B4B0500236300230A4863630A4BFF212D
:10A2A000E4622364704306F005F82900414320006E
:10A2B00014300EF0D9FB637A012B00D995E791E7B2
:10A2C000D35C0200B6030000BD5C02001FB5012391
:10A2D00081881A0068460BF0A7FA012303491A0087
:10A2E00068460BF0A1FA05B000BDC046FE030000B1
:10A2F0001FB5030048331A780400002A0DD000224D
:10A300001A70012381881A0068460BF08DFA012328
:10A3100004491A0068460BF087FA200074300DF0EB
:10A3200093FA1FBDFF03000010B548300378002BDF
:10A3300006D00378012B03D0012102480BF005F968
:10A3400010BDC046FF03000010B501210400062027
:10A350000BF0FBF8064B984208D148342378002BC9
:10A3600004D02378012B01D020BFF7E710BDC046F1
:10A3700016FCFFFF70B50600141E19DB05004835FA
:10A380002B78002B02D02B78012B13D10023300027
:10A390001A00743002F09CF8002C07D033004A33C6
:10A3A0001C80002407234C3634802B70200070BDA5
:10A3B000014CFBE7014CF9E717FCFFFF12FCFFFF24
:10A3C000F8B517000A68050052880B00012A09D168
:10A3D000002118000BF011FA002201002800FFF7FD
:10A3E000C9FFF8BD002F19DD060048363278002A73
:10A3F00002D03278012A13D12A00002428005C32CE
:10A400001900148058300BF0D3F92B004A331F8009
:10A4100003234C352C8020003370E2E70148E0E74D
:10A420000148DEE717FCFFFF12FCFFFF73B5079C36
:10A430000500002C1CDB060048363078002802D0CE
:10A440003078012816D106981BB2C0B200902800BF
:10A4500012B274300DF008FA002C07D02B004A33EA
:10A460001C80002407234C352C803370200076BDDF
:10A47000014CFBE7014CF9E717FCFFFF12FCFFFF63
:10A48000F7B505000E00171E26DDFFF74DFF2B0068
:10A4900048331C78E4B2002C20D133685B88012B50
:10A4A00009D1210030000BF0A8F92200010028009A
:10A4B000FFF760FFFEBD310001A80BF071F93A0013
:10A4C00001A92800FFF77CFF01A80BF012F9280072
:10A4D000FFF73AFF2000EDE70148EBE70148E9E725
:10A4E00017FCFFFF11FCFFFFF0B587B00D9C0600C5
:10A4F0000F0002920393002C20DBFFF715FF3300BF
:10A5000048331D78EDB2002D1AD1390005A80DF0A1
:10A5100093F90C9B01940093029A039B05A93000C8
:10A52000FFF784FF05A80DF07AF9002C03D0300066
:10A53000FFF70AFF2C00200007B0F0BD014CFAE73E
:10A54000014CF8E717FCFFFF11FCFFFFF8B5040012
:10A55000171E1DDD060048363378002B02D03378F5
:10A56000012B17D12200E3795632013B13702300EF
:10A570000025200054331D8050300BF019F92300C2
:10A580004A331F80022328004C3425803370F8BDE5
:10A590000148FCE70148FAE717FCFFFF12FCFFFF48
:10A5A000F7B505000F00161E18DDFFF7BDFE2B00E6
:10A5B00048331C78E4B2002C12D1390001A80BF00A
:10A5C000EFF8320001A92800FFF7C0FF01A80BF047
:10A5D00090F82800FFF7B8FE2000FEBD0148FCE718
:10A5E0000148FAE717FCFFFF11FCFFFFFF2902D823
:10A5F0004172002070470148FCE7C04617FCFFFF8E
:10A60000F0B51F0085B00AAB1B78040003930093DC
:10A610003B000D0016000EF04DFA002833D0237DCC
:10A62000082B2DD8236800221900FC318A62A02152
:10A63000C9005A50154905205A500138C046C04635
:10A64000C046C046C046C046C046C046C046C046DA
:10A65000C046C046F1D1236801325A50A0210432CD
:10A66000C9005A5005F0EAF8039B32000093290014
:10A670003B0020000EF01EFA237D01332375CCE74A
:10A68000034805B0F0BD2075FBE7C046FC0F000095
:10A690000EFCFFFFF0B51F0085B00AAB1B7804006D
:10A6A000039300933B000D0016000EF0EBF9002819
:10A6B00033D0237D082B2DD8236800221900FC31CC
:10A6C0008A62A021C9005A50154905205A50013804
:10A6D000C046C046C046C046C046C046C046C0464A
:10A6E000C046C046C046C046F1D1236801325A5028
:10A6F000A0210432C9005A5005F0A0F8039B320093
:10A70000009329003B0020000EF0BCF9237D0133AB
:10A710002375CCE7034805B0F0BD2075FBE7C046C4
:10A72000FC0F00000EFCFFFFF8B50D1E30D0002618
:10A730000227C468002C28D0AA88A38853403B4233
:10A7400004D13A4204D1AB883B4219D0646AF1E7A4
:10A75000A968A0680CF017FA0028F4D02B88002B09
:10A7600002D022889A42F1D16B88002B02D06288F5
:10A770009A42EBD1A288074B01361343A380E5E749
:10A78000A368AA689342E1D1E8E72000002E00DC2C
:10A790000148F8BD0080FFFF17FCFFFFF0B5060081
:10A7A00085B00D1E59D00127C468002C22D002218B
:10A7B000AA8800230A4202D0A3885B083B40226893
:10A7C00029688A4210D1A068A968002B0AD00CF031
:10A7D000DAF9002808D0A3881AB2002A06DB20483C
:10A7E00005B0F0BD8842F6D0646ADEE75B045B0C1E
:10A7F000A380F4E7F0682A88002807D1F5600123D8
:10A80000184968460BF010F80020E9E70100030042
:10A810001C88944206D25C6A1900002C0DD02300DB
:10A82000F6E723001C88944207D15F886C88A74212
:10A8300003D25C6A1900002CF3D1814209D10B8844
:10A840009A4204D305D148886B88984201D969623D
:10A85000D4E74B6A6B624D62D1E70348C0E7C0465C
:10A8600016FCFFFFFD03000017FCFFFF064B10B5B1
:10A870001A00040008322C33026043600430FEF7F3
:10A8800039F9200010BDC0460894020008B4024BFC
:10A890009C46043808BC60476DA8010008B4024B10
:10A8A0009C46043808BC6047E56002000C4A00235F
:10A8B00011002C32083110B5038183724260C360ED
:10A8C000036143614383016004000430FEF704F92F
:10A8D000044B1A68002A00D11C60200010BDC0463D
:10A8E0000894020000270020F7B50E000125C46877
:10A8F0000192002C36D0238832889A4201D0002B56
:10A9000023D1638872889A4201D0002B1DD1FEF7B3
:10A9100057F80123002806D0C022A3881340C03B6B
:10A920005A425341DBB2019A934219D1A7883BB2F4
:10A93000002B15DB10223100A0180EF03EFB402347
:10A940001F4204D020000BF0D6FB646AD1E7FEF76B
:10A9500037F80028F6D021000348FEF7E1F9F4E7C4
:10A960000025F2E72800FEBDF760020008B4024BA4
:10A970009C46043808BC60477F620200F0B587B08F
:10A9800001930EAB1B88060003930D9B0D000093F3
:10A99000019B02920C9F002B3DD0002F02D1009B07
:10A9A000DB0738D52820FEF771FA040010300AF0D2
:10A9B00031FF6B461B89258063801820FEF766FAFD
:10A9C0000500009B08220593019B002103600C30C9
:10A9D00004970EF00EFB082204A9281D0EF0EDFAD4
:10A9E0000E4B02226B6100230399E36023626362D2
:10A9F00033680A43A560A2805B6821003000984755
:10AA0000002806D020000AF02AFE2000FEF75EFA99
:10AA1000034807B0F0BD0348FBE7C046B962020037
:10AA200016FCFFFF17FCFFFFF0B504001600002521
:10AA30008380164A164B8571026021814681057319
:10AA4000186889B08C46A8421DD0124A0595049218
:10AA5000C02202926A4604AB82CB82C223002A0043
:10AA60006146FFF78BFFC022094B0A491868029222
:10AA70006A46069106AB079582CB82C223002A0064
:10AA80003100FFF77BFF200009B0F0BD4C940200BD
:10AA900000270020E363020030B500240373012384
:10AAA000034D84710560818082734373846030BD7F
:10AAB0006494020070B5040000250C4B0E000833AE
:10AAC000858085710360210018300BF042FD200065
:10AAD000210020300BF060FD054BA680E58025723B
:10AAE000E5602561656120001C6070BD7494020002
:10AAF000082700208379DB0702D5C160002070475A
:10AB00000048FCE716FCFFFF8379DB0701D5C0682E
:10AB100070470148FCE7C04616FCFFFF70B5456969
:10AB20000400002D22D0037A032B21D8FFF7ECFF7D
:10AB3000A8622C20FEF7AAF92C22002105000EF0B5
:10AB400058FA002263695A622369934208D1636903
:10AB500023610020237A65610133237270BD1300E5
:10AB60005A6A002AFBD162695A62F2E70148F5E7A6
:10AB70000148F3E717FCFFFF13FCFFFF144B70B510
:10AB80005A68144C002A03D000225A600132A26095
:10AB90001A69002A17D0002119618023DB000E4DAD
:10ABA000E3582868012B0FD1A923DB00E158494263
:10ABB000FFF7A0FF2868FFF7B1FF2B685A69074B22
:10ABC000E2500123A36070BDFFF794FFF9E7C04690
:10ABD000FC10004000100040082700200405000081
:10ABE00003000069002809D00221054AD167426AA2
:10ABF0001A611A7A013A1A72024B19607047C046FC
:10AC000004E100E000E100E010B5002903DB024BA5
:10AC100019600DF09FFF10BD0C27002070B50400D7
:10AC20001E0004AB1D7804F00FFD20000E4B4030D9
:10AC30002360FEF771FA230001364C330135220000
:10AC40001E701D730023E1214E32A36463651380DF
:10AC500053809381D381013B200063644902FFF755
:10AC6000D3FF200070BDC046B0920200F7B5802728
:10AC70007F053D697C690822113C6C430600210078
:10AC800068460EF09AF9104B009A9A4219D0009338
:10AC90000023019379693000133969430BF091FC6B
:10ACA000019A009930000BF0A4FC210030000BF059
:10ACB00088FC7969AB0813396943220030000BF036
:10ACC0008AFC0198FEBDC046FECA0000F0B50D002A
:10ACD000A9B00D9200213022060010A80B930EF0AF
:10ACE00088F928000EF0DBF9431C0C93102B00D9D7
:10ACF000B5E00B9B202B00D9B1E0290030000BF010
:10AD0000A5FC071E50D129000C9A10A80EF055F989
:10AD10000D990B9A14A80EF050F980235B051A695F
:10AD20005F690C92113F7A4330005D690B92FFF727
:10AD30009DFF3022002104001CA80EF05AF92900C2
:10AD400000270C9B1339594330000BF03AFC0D9748
:10AD500030257D430B9B0833ED18A74242DA2900CA
:10AD600030221CA80EF029F910A91CA80EF085F9B4
:10AD7000002827D13C49300022000E910F940BF09F
:10AD800038FC6A46099513AB23CB23C223CB23C2DD
:10AD900023CB23C23000129B1099119A0BF037FC81
:10ADA00001230D930137D3E710300B9A0D990EF064
:10ADB000F5F804003800FEF789F8002CA3D1200034
:10ADC00029B0F0BD6A4609951FAB23CB23C223CB24
:10ADD00023C223CB23C230001C991D9A1E9B0BF06B
:10ADE00016FCDFE7E5433023ED1725405D430B9B61
:10ADF00008355D190D9B002B1DD10C9B3021981E31
:10AE000005F0CEF9A0422CD01749013430002200C1
:10AE10000E910F940BF0EDFB6A46099513AB23CB13
:10AE200023C223CB23C223CB23C230001099119A13
:10AE3000129B0BF0ECFB0B9930000BF0C2FB802354
:10AE40005B0559690C230C9A133963434A43023357
:10AE5000110030000B9A0BF0BEFB0024AFE7034C4F
:10AE6000ADE7034CABE7C046FECA000017FCFFFF8E
:10AE700013FCFFFF70B50400A280FA220023080033
:10AE80000C49920008312160A3716061E260A36007
:10AE9000638209490BF0DAFB051E09D0010020008E
:10AEA0001031022212300EF088F82800FEF70EF85A
:10AEB000200070BD8C940200BBA1020030B50225B9
:10AEC000837987B004002B4204D1FDF705FEA379F6
:10AED0001D43A57120000BF003FC00281CD06B461D
:10AEE000DD1C28000BF0F3FB2B78002B17D001A8FA
:10AEF0000BF0EBFB0321019AD3170B409B189B101F
:10AF00002382FEF78BF8E368A18818180123A0605C
:10AF10001A0002A80AF088FC002007B030BD012208
:10AF2000064B1A60064A51680029FCD00021516086
:10AF3000044A1268019201225A60DBE700C0004017
:10AF4000FCC0004008C50040022802D10122014B8C
:10AF50001A7070470A2A002070B5064C0500237845
:10AF6000002B04D1044802F01FF9012323702800AC
:10AF700070BDC0460B2A002049AF010070B50C001F
:10AF80000AF071FA002810D00023144DA40A2B7087
:10AF900020000BF0B9FB002803D00A200DF0E1FEE1
:10AFA000F6E72B78002BFCD070BD02210C4B0D4A2C
:10AFB00099508021C90008005D58002DFCD0A121C6
:10AFC000C9005C5019580029FCD0002199508021FB
:10AFD000C9005A58002AFCD0E6E7C0460A2A0020D9
:10AFE00000E0014004050000F8B50C0015001E004B
:10AFF0000AF039FA002811D00023174F3B703200B5
:10B00000290020000BF07EFB002803D00A200DF061
:10B01000A8FEF4E73B78002BFCD0F8BD01210F48D7
:10B020000F4B844619508021C9005A58002AFCD081
:10B0300080270022FF00964207DD9100685860508B
:10B04000D9590029FCD00132F5E7002261465A5057
:10B05000DA59002AFCD0E0E70A2A002004050000A3
:10B0600000E0014010B50400054B083303601C30BC
:10B070000AF03FFB200018300AF03BFB200010BD17
:10B08000A4940200FF23F0B52C4D8DB02B7000234B
:10B09000040069460088009304F00EFA002802D1EB
:10B0A0006B469B782B70264E3368DB68002B07D1EC
:10B0B000002320881A0019000BF02AFB0DB0F0BD08
:10B0C0002B78032BF4D81F4901A8FDF7EBFF336859
:10B0D00001A9DE6804A80AF063FB04A930000BF0A4
:10B0E000E8FA0027060004A80AF003FBBE421ED0BF
:10B0F00031002022103104A80DF05FFF3000FDF771
:10B10000E5FE297804ABC9005918082202A80DF001
:10B1100054FF20880123082202A90BF0F9FA013715
:10B12000002804D12088084A0C210BF0EFFA01A86E
:10B130000AF0DFFA002FBBD0C0E7C046F0210020A4
:10B140001C270020CBA10200FFFF0000F0B583798F
:10B1500091B004005B071BD5FDF760FF0023226957
:10B16000801A9941994203D1F423FF3398420FD9B1
:10B17000A068002808D0364B1D880CF014FC03682A
:10B1800015221B6A290098470422A3799343A371CF
:10B19000A3799B0759D52F4D2B68DB68002B50D026
:10B1A0002D4B1B78032B4CD8294B2C491B8804A80A
:10B1B0000193FDF777FF2B6804A9DE6808A80AF061
:10B1C000EFFA08A930000BF074FA070008A80AF09B
:10B1D00090FA02AB9E1D08233200338006A9073B7C
:10B1E00001980BF097FA002F08D039002022103177
:10B1F00008A80DF0E2FE3800FDF768FE164B328815
:10B200001B7806A9DE0008AB9E1930000DF0C6FEC3
:10B21000002813D0082206A930000DF0CEFE2B68BE
:10B2200004A9DD6805A80AF0BBFA202308AA05A92D
:10B2300028000BF044FA05A80AF05BFA04A80AF00B
:10B2400058FA0222A3799343A37111B0F0BDC0460E
:10B25000B42900201C270020F0210020CBA10200EF
:10B26000F7B5089E0500152922D8012007008F4058
:10B27000244C27421CD0E97FCC181F2C41DC6918D4
:10B280003418A14210D80021C8B2834204D9545CBA
:10B29000701884700131F7E732789A183270EA7FBB
:10B2A0009B18EB7700202CE00878C8540139E8E7B8
:10B2B0003478013CE4B2A34208D10023D9B28C42D5
:10B2C000F0D9D05CF11888700133F7E7EF7F0120E7
:10B2D000FF183F1B1F2F14DC0227A01C7F423618CB
:10B2E000381B0190E87F2F18BE4204D23078019FAE
:10B2F000F0550136F6E7041B023CEC7728000BF012
:10B3000053FAFEBDFC002000F0B585B001930AABF6
:10B310001E880BAB1B78451C02930EAB1B780400F8
:10B3200003930B78170003704B8A1022438201317C
:10B3300028000DF042FE6B469B88268363836B4694
:10B340001B7B002623776B4601221B7A6761E6830D
:10B35000EB77A31CDA770C9B0C256362230020009B
:10B360000D9A28331A705E709E702A0031002C30BE
:10B370000DF03FFE2000074BE663A3632A00310077
:10B3800040300DF036FE2000034B2665E36405B027
:10B39000F0BDC0462B6702001D67020070B50D00AE
:10B3A0000CF001FB04000368002D09D15B6998478C
:10B3B000FA2080006843074904F0F2FEE08070BD87
:10B3C0009B6898478542F3D2236820009B68984782
:10B3D0000500EDE771020000F0B507001600A1B00E
:10B3E00002C704006B4918A81D000BF024FA331E95
:10B3F00003D030000DF053FE83B2012204920022EC
:10B4000003920292023201920093320018A938008E
:10B41000FFF77AFF23006049583318A807930BF011
:10B420000AFA2B1E03D028000DF039FE83B2012248
:10B4300004920022039202920232019200932A00A7
:10B4400018A90798FFF760FF23005449AC3318A8E8
:10B4500008930BF0F0F9269B002B03D018000DF099
:10B460001EFE83B201220492002203920292023253
:10B4700001920093269A18A90898FFF745FF631CCC
:10B48000FF33474918A809930BF0D5F9279B002BE8
:10B4900003D018000DF003FE83B2012204920022B3
:10B4A000601C03920292023201920093279A18A91B
:10B4B000FF30FFF729FF23005533FF33394918A820
:10B4C00009930BF0B8F9289B002B03D018000DF05E
:10B4D000E6FD83B20122049200220392029202321C
:10B4E00001920093289A18A90998FFF70DFF2300ED
:10B4F000A933FF332C4918A80A930BF09CF9299B18
:10B50000002B03D018000DF0CAFD83B20122049273
:10B51000002218AD03920292023201920093299AFE
:10B5200029000A98FFF7F0FE204B1B780B93002BA5
:10B530002DD1079B12971393089B0DAF1493631C97
:10B54000FF331593099B1A4916930A9B38001793EA
:10B550000BF071F91D2149203B7810222B707B8A5A
:10B5600012AE6B8206ABC918C0180DF026FD06237B
:10B570002B756B469B8D2068AB83AE610CF017FA80
:10B58000036829001B6898470122084B1A702000A5
:10B5900021B0F0BD292A0000242A0000252A00003D
:10B5A000272A0000262A0000282A00000C2A002052
:10B5B0000A18000070B5002504000A4B8580083386
:10B5C00085710360C1601830FDF7A6FD20001C30B6
:10B5D000FDF7A2FD044BA5601C60012365612000FE
:10B5E000A37170BDA49402001C270020FA2130B57D
:10B5F00085B0050001230222890068460AF014F98B
:10B60000074C2068002809D00BF04EF92988054B1B
:10B6100022681980022391790B43937105B030BDE4
:10B620001C270020B429002010B50C0007290DD8D4
:10B6300080680CF0B8F9064B195703685B6C9847A3
:10B64000431E9841034B4042184010BD0248FCE79E
:10B65000C3A1020016FCFFFF17FCFFFFF0B5A44CCE
:10B660000D00A544040007939AAB1B78A14909A8D3
:10B6700004930692FDF716FD200029001C300AF005
:10B6800097F8C020800001F085FD0820FDF7FEFB43
:10B690000600002100F0D0FF15ADA66000210C22AD
:10B6A0000EA80DF0A6FC2B000EAA83CA83C3924BF2
:10B6B0002900EB60002330002B610CF05DF9A068DD
:10B6C0000CF071F908220021059016A80DF091FCEC
:10B6D0001420FDF7DBFB29000200884B1593C8C935
:10B6E000C8C2874B059EC3600023A436036133683C
:10B6F000002B00D0F5E03060A0680CF058F908226B
:10B700000021060016A80DF074FC1420FDF7BEFB06
:10B710007C4B1593030086CD86C37B4BC36000230F
:10B720000361336B002B00D0DDE03063A0680CF0C8
:10B730003AF908220021050016A80DF05AFC142041
:10B74000FDF7A4FB714B15AE1593030086CE86C39F
:10B750006F4B9835C360002303612B68002B00D02A
:10B76000C3E02860012504AB1B7C04AA2B4308A975
:10B77000280013740AF0D0FFA0680CF01CF90368CD
:10B7800064495B6A9847A0680CF015F90368624940
:10B790009B699847A0680CF00EF90023026800939B
:10B7A000166804992A00B047049B002B0AD0200099
:10B7B0000BF083F8032805DDA0680CF0FCF80368A3
:10B7C000DB6898470EA80AF0E6FF2F2004ABC018EC
:10B7D0000AF0E1FF362004ABC0180AF0DCFF3D2080
:10B7E000042504ABC0180AF0D6FF0EAB0A93A0687C
:10B7F00004AB5D770CF0DFF803680AA91B69984772
:10B80000A0680CF0D0F803680AA95B6D9847A0689F
:10B810000CF0C9F803680021DB6D9847A0680CF0B4
:10B82000C2F8036802219B6D984700212000FFF7B2
:10B83000FBFE1820FDF72AFBA16800F005FA374B44
:10B84000374A1B68A1680393364B15A81B6800266E
:10B850000293354B0CAF1B680193069B1B685B1969
:10B860000093324B12681B68FFF7B6FD3020FDF7DE
:10B870000DFB079AA16800F0A7FAA0680CF093F8F6
:10B88000036839009B6A9847294BBE80A0680C93D7
:10B890000CF089F803683900DB6A98472900A06832
:10B8A0000AF0D5FF099A09219378A06852190AF085
:10B8B000E1FFA0680CF077F8C8210671A068FFF7D7
:10B8C0006DFD04AB1B7FB34204D0A0680CF06BF895
:10B8D0000AF0A7FF09A809F00CFF95239B009D44DF
:10B8E000F0BD036107E703611FE7036139E7C04665
:10B8F000ACFDFFFFBEA2020039670200EDB50100FA
:10B900004767020085B001005567020083670200A7
:10B910006367020035B9010069B9010018270020EA
:10B920001427002008200020102700200C200020D1
:10B930000800100013B506226846FDF7C3FB094B4B
:10B940001C68002C0AD0694601A809F029FF2000D4
:10B9500001A90AF0D3FF01A809F0CBFE684609F05F
:10B96000C8FE13BD1C270020002373B501AE0C00D8
:10B9700031000500019303F09FFD002802D1B27849
:10B98000064B1A70064B1868002806D061426141C8
:10B99000044BC9B21D800AF0B9FF73BDF02100202D
:10B9A0001C270020B4290020F0B5040097B00391B3
:10B9B00007A89C490592FDF775FB9B4908A8FDF770
:10B9C00071FB22000FAD28001C3207A909F0FFFE11
:10B9D00008AA290009A809F0FAFE280009F089FE42
:10B9E00092490AA8FDF75EFBA0680BF0DCFF036834
:10B9F0000DAE5B69984728000AF0CDFE332004ABFA
:10BA0000C0180AF0C8FE3A2004ABC0180AF0C3FE02
:10BA1000412004ABC0180AF0BEFE8023DB00B380D7
:10BA2000A0680D950BF0BFFF036831005B6D984770
:10BA3000A0680BF0B8FF036800219B6D9847A068D1
:10BA40000BF0B1FF0700002506000A371F22002176
:10BA500038000DF0CEFAFD7730000AF0D9FE06214D
:10BA6000A0680AF0F4FE099A09219378A0680432CC
:10BA70000AF000FFA0680BF096FFC8210571A068CE
:10BA8000FFF78CFCA0680BF08EFFFF272E000581CE
:10BA9000A0680BF088FF0AF0C4FE0398FEF728FCAC
:10BAA0000AA90CA809F07CFE78220CA90398FEF7DD
:10BAB00077FD0CA809F01DFE039920000AF039FF5C
:10BAC0002000FDF709F80495012563691D402DD07C
:10BAD00057490BA800F0ACFC0BA90CA80BF0ACFE6E
:10BAE00000220CA91300019200920398FEF7FCFCBF
:10BAF0000CA80BF094FE049B002B42D1043F282F8E
:10BB000041DD0025FE2F00DC049D05980AF02DF88C
:10BB1000002806D0012362699A43130004221343CC
:10BB2000636100260BA80BF07AFE0495042263697A
:10BB3000134233D0FF210398C826FEF757FD002596
:10BB4000B600A36902229B5EAB4222DD200029B22F
:10BB5000183009F052FE0023010003981A007430D7
:10BB600000F0B6FC3000FDF74FF803980AF01AFA1F
:10BB7000C820FDF749F802226369134209D1013553
:10BB8000DFE70437BBE703980AF00CFA002FBCDDAF
:10BB9000BAE7FA208000FDF737F80026022365692E
:10BBA0001D421CD006331D4024D022490BA800F0B2
:10BBB0003FFC0BA90CA80BF03FFE00220CA9019240
:10BBC000009213000398FEF78FFC0CA80BF027FEE1
:10BBD0001948FDF719F80BA80BF021FE174E642049
:10BBE000FDF712F8164B01369E4200DC6CE709F0B7
:10BBF0004CFC69E713490BA800F01AFC0BA90CA830
:10BC00000BF01AFE2B002A000CA901950095039851
:10BC1000FEF76AFC0CA80BF002FE0BA80BF0FFFD70
:10BC2000DDE7C046D7A10200E7A10200E9A10200BA
:10BC3000F7A102003CA20200983A00008C0A000022
:10BC40008B0A000079A202000022594BF0B508339C
:10BC5000060003600F001000A9B0B1600BAB99188B
:10BC600001324870102AFAD10F3A524C1A700E3233
:10BC7000105D991A0874013AFAD2997B5A7B09022D
:10BC80000A4331000C31039125211B7813AD2B7031
:10BC900002ABC918452302A81B186A82180010229B
:10BCA0000DF08BF9039B64216B610123002402AA30
:10BCB0002B7752181993093313701DAB1C706D2329
:10BCC00002AA9B181C706E2321009B181EA80C2230
:10BCD000EC836C621C700DF08CF9374B0C22210048
:10BCE00023A8AB63EC630DF084F9344B02AAEB6438
:10BCF00046239B180322DA7722002C6505953473BE
:10BD000006AD2B1901345A70102CFAD101232C489E
:10BD10002B700E33195CEA1A1174013BFAD211210F
:10BD20002520AA7B6B7B12020BAC13432A7863821B
:10BD300002ABC9182270C01810220DF03EF9012381
:10BD4000237505ABA36100233800A3830BF02FFEFE
:10BD5000036821001B68984713ABDB8BB068B38284
:10BD60000BF025FE002203680092B18A039ADC687A
:10BD70000123A047B0680BF01AFE07001420FDF75E
:10BD800085F80022012304000261069240C00832B7
:10BD9000290007930DF011F90A4BE360BB69002BF2
:10BDA00003D13000BC6129B0F0BD2361F9E7C04682
:10BDB000BC940200D6A202002B6702001D6702009D
:10BDC000E6A2020093690200F0B500260400734B5E
:10BDD000DDB0083303608160C26086808671320006
:10BDE0006F4947A80AF075FE230014330125042784
:10BDF00008931223009704950193089A330047A9EA
:10BE0000039602961DA8FFF77FFA3200654947A8FE
:10BE10000AF05FFE082022000097330015AF1032B1
:10BE20000495019047A90396029632A8FFF76CFA91
:10BE300032005D4938000AF04CFE2300082004223D
:10BE40001C33099339003300049501900092039646
:10BE5000099A029647A8FFF757FA3200534938006B
:10BE60000AF037FE5420FDF711F8050020000123E9
:10BE70001221042218300790049301910092390096
:10BE800002003300280003960296FFF73DFA2800CF
:10BE9000474BA5620822EC620AA930300A930B9640
:10BEA0000DF08BF8434B0422AB63012329352B7033
:10BEB00009992661E66107980DF07FF80422079939
:10BEC00008980DF07AF86621032304AA8918CB7725
:10BED000BA2104AA8918CB77872104AA49008918B6
:10BEE000A26ACB77911CA685CB771DAB0C9332ABA6
:10BEF0000D930F9247AB32002F4910A80E930AF012
:10BF0000E8FD3021452004AB5B181B7812313B70F3
:10BF100004AB5B181B8811397B8204ABC918C018AD
:10BF200010220DF04AF804220CADA0683A75BD61EC
:10BF3000BE830BF03CFD036839001B6898478222E2
:10BF400004AB9B181B885432238404AB9B181B88BA
:10BF50005432A38404AB9B181B88A06863840BF045
:10BF600026FD07001420FCF791FF0500134B066126
:10BF700008221093119610A910C00DF01EF8104B56
:10BF8000EB60BB69B34206D1BD612000FCF7A4FDA4
:10BF900020005DB0F0BD2B61F6E7C046C8940200FA
:10BFA00016A30200F6A2020006A3020026A30200C6
:10BFB000A56A0200116A020036A302002DC001002A
:10BFC0003B6A0200F0B504000E00150085B01F00AA
:10BFD0000CAB1B881030019309F01CFC2680658097
:10BFE0001820FCF753FF02AE050033000AAA03CA6B
:10BFF00003C32F602800082700213A000C300CF002
:10C00000F8FF3A003100281D0CF0D7FF064B022242
:10C010006B61200000230199A5600A43E360A280C0
:10C020002362636205B0F0BD656A0200F0B50B895A
:10C030008DB00593CB68060004934B88828C9A429E
:10C040000ED1049C049B059A9B181B1B032B3BDD04
:10C0500062882188012308A809F0E6FB0434F1E78F
:10C06000428C9A4230D1049C049B059A9B181B1B5E
:10C07000032B29DD2388282006936388F76807931C
:10C08000124B089300230993FCF700FFC0236A4674
:10C090000500029308AB03CB03C233000699079A4D
:10C0A0002800FFF78FFF3B6829005B68380098473E
:10C0B000002807D0002D05D0280009F0D0FA28006C
:10C0C000FCF704FF0434CFE70DB0F0BD236B020092
:10C0D00070B5040090B080680AF01EFD0221014096
:10C0E0001AD1A38D002B17D00C4B6A460493102352
:10C0F000E568A1850591029304AB41CB41C20A00DA
:10C10000230006A8FFF75EFF2B6806A99B6828009E
:10C11000984706A809F0A3FA10B070BD236B02007F
:10C12000002815D0006041608260C36004614561F1
:10C130008661C761444604624C4644625446846248
:10C140005C46C462644604636E4646637446846318
:10C15000002A06D0C46B043C043A25681560B4423A
:10C16000F9D18C6BA6464E6BB546002B06D0CC6B36
:10C17000043C043B1D682560B442F9D10C6BA44615
:10C18000CC6AA3468C6AA2464C6AA1460C6AA046B9
:10C19000CF698E694D690C69CB688A6808684968FF
:10C1A0007047006041608260C360046145618661E0
:10C1B000C761444604624C464462544684625C460D
:10C1C000C462644604636E46466374468463C46B0B
:10C1D000043C043925680D60B442F9D1C769866909
:10C1E000456904697047006041608260C360046112
:10C1F00045618661C761444604624C4644625446C8
:10C2000084625C46C462644604636C46446374465C
:10C21000846304697047846BA646446BA546046B2F
:10C22000A446C46AA346846AA246446AA146046A34
:10C23000A046C769866945690469C3688268006861
:10C240004168704710B5041E0CD00CF028FF431E47
:10C25000E3189C4208D222781978013B21705A7069
:10C260000134F6E7014810BD0020FCE717FCFFFF92
:10C27000F0B585B002900C1E2AD00023C217161A02
:10C2800056400193019B30005D1C63190A215F1E1B
:10C29000039304F0F5F849423031397030000A2137
:10C2A00004F008F847420600002F0FD1029B002B34
:10C2B00004DA2D23019D039A023513700023200018
:10C2C0006355FFF7BFFF380005B0F0BD0195D9E712
:10C2D000004FF8E717FCFFFF10B582604A430400E7
:10C2E0004160002A0ADD074B90009A4201DD0120DF
:10C2F0004042FCF7CBFD2060200010BD002303600E
:10C30000FAE7C046FEFFFF1F4A688B6870B583607E
:10C31000534304000D004260002B12DD0A4A9E00C8
:10C320003000934201DD01204042FCF7AFFD0023C5
:10C3300020602A68D158C15004339E42FAD12000AF
:10C3400070BD00230360FAE7FEFFFF1F014B03608F
:10C350007047C046E094020030B500684488A142AE
:10C360000CDA8588AA4209DA002907DB002A05DBF6
:10C370005443401800198371002030BD0048FCE789
:10C3800017FCFFFFF0B5070085B00E001D00002967
:10C390001FDD002B1DD00468638803938B4200DDF2
:10C3A0000391A3880293934200DD02920023063496
:10C3B0000193019B029A93420EDA29002000039A0E
:10C3C0000CF0FBFD3B68AD195B88E418019B013361
:10C3D000EEE7024805B0F0BD0020FBE717FCFFFFC9
:10C3E000F8B504000D0016001F00002901DB002A2B
:10C3F00002DA0E4B2360F8BD100048430630FCF70C
:10C4000045FD206009F05EFA23685D8023689E8008
:10C41000002F06D03B00320029002000FFF7B2FFBA
:10C42000E9E720000BF010FAE5E7C046E0940200CF
:10C43000F0B5060087B00D1E04D1244B0360300018
:10C4400007B0F0BD00200F000400010001903B7810
:10C45000002B1AD03022524294469C446246092A4C
:10C4600011D90A2B0AD1019B241801330193A1424F
:10C4700000DA2100002004000137E8E70028FBD0A3
:10C4800001340020F8E70120F6E76A46928809B2F5
:10C4900012B23000FFF7A4FF33689C1D03AB1F00EE
:10C4A0002A78002ACBD011003039092903D81A7014
:10C4B00001330135F4E700221A70BB42F9D9380084
:10C4C0000CF05BFD3B0020700134F2E7E0940200C9
:10C4D000F0B5040089B006A80E0002921D00FCF71A
:10C4E0005FFC236802995A88914235DA9B889D4205
:10C4F00032DA1F2E30D9079B01939E422CDC052394
:10C50000002273430393069B0493039B04999B1897
:10C51000A03BCB5C00210593AE18029BCF1823688B
:10C520005888019087420EDA9888B0420BDDDB19FB
:10C5300010270F41019870431B1805980740781E7B
:10C5400087417F429F7101310529E6D10132052AD9
:10C55000DBD1002009B0F0BD0048FBE717FCFFFF6E
:10C56000F7B50468070063880E1E01931EDD99422B
:10C5700018DA0023063400933B68009A9B889A429D
:10C5800012DA019BA1199D1B2A0020000CF015FD59
:10C59000601931000BF04AF93B685B88E418009B96
:10C5A0000133E8E70BF050F9002000E00048FEBD41
:10C5B00017FCFFFF10B50548054C206009F085F910
:10C5C000044A054920000CF0B4FC10BDE0940200C0
:10C5D00020270020002000201F78020070B50028CE
:10C5E00017D1114D2E68002E11D108300CF0ACFC83
:10C5F000066046600D4E04003368002B02D10BF03C
:10C600000DFC306023682C609B00F3586360286841
:10C6100070BD0122064907480B681340F8D102603B
:10C6200043600A60F4E7C046282700203427002032
:10C63000242700202C270020002370B5040001606F
:10C64000436099420AD1064D2B68002B02D10BF0B2
:10C65000E5FB286023689B00EB586360200070BDF9
:10C6600034270020436810B50400002B02D1044891
:10C670000CF07EFB606803681B69984710BDC046DC
:10C6800046A30200436810B50400002B02D1044801
:10C690000CF06EFB606803689B69984710BDC0464C
:10C6A00046A30200436810B50400002B02D10448E1
:10C6B0000CF05EFB606803685B6A984710BDC0467B
:10C6C00046A3020000487047FFFF0000F0B597B096
:10C6D0000593036807AD1B680491039311002B00B9
:10C6E000060091C991C30024D36821000C220CA834
:10C6F000EB602C610CF07DFC22000B4B10940F932F
:10C7000011AB1C70191901344A70102CFAD15A82DD
:10C710000193059B2A00009304990CAB3000039C05
:10C72000A04717B0F0BDC046D57A020070B5FC3006
:10C73000046C0500002C0DD124200CF005FC064BE8
:10C7400044608361054B8460C46004614461C461DA
:10C7500003602864286C70BDBC950200A49602009A
:10C7600070B5FC30C56B0400002D11D134200CF0E5
:10C77000EBFB084B85604360074B45610361074B4A
:10C780000562C361064BC5628362064BE0630360CA
:10C79000E06B70BDEC950200DC9502004C96020047
:10C7A0005C9602006C9602007FB503791548002B59
:10C7B00022D0154E154C33782000002B1CD102AD31
:10C7C00028000BF064F9002810D16B88592B0DD18B
:10C7D0002B78AA88D91F012910D800920C4A202151
:10C7E000200008F0E9F80123337004E02022094911
:10C7F00020000CF05BFC200004B070BD0092064AE3
:10C80000EDE7C04669A302002D2A00200D2A002072
:10C810008BA3020083A30200A8A3020010B50400AA
:10C82000024B08C00BF013FA200010BDDC9502008B
:10C8300010B50400024B08C00BF01EFA200010BD1A
:10C84000EC950200064B70B50400036040680028B8
:10C8500004D005690CF074FB2800F8E7200070BDD7
:10C86000CC950200064B70B50400036040680028B8
:10C8700004D005690CF064FB2800F8E7200070BDC7
:10C88000FC950200064B70B5040003604068002868
:10C8900004D005690CF054FB2800F8E7200070BDB7
:10C8A0000C960200064B70B5040003604068002837
:10C8B00004D005690CF044FB2800F8E7200070BDA7
:10C8C0004C960200064B70B50400036040680028D7
:10C8D00004D005690CF034FB2800F8E7200070BD97
:10C8E0005C960200064B70B50400036040680028A7
:10C8F00004D005690CF024FB2800F8E7200070BD87
:10C90000F0940200064B70B50400036040680028F4
:10C9100004D005690CF014FB2800F8E7200070BD76
:10C9200000950200064B70B50400036040680028C3
:10C9300004D005690CF004FB2800F8E7200070BD66
:10C9400010950200064B70B5040003604068002893
:10C9500004D005690CF0F4FA2800F8E7200070BD57
:10C9600020950200064B70B5040003604068002863
:10C9700004D005690CF0E4FA2800F8E7200070BD47
:10C98000BC95020070B5FC30046C0500002C0DD184
:10C9900024200CF0D9FA064B44608361054B846077
:10C9A000C46004614461C46103602864286C70BD84
:10C9B000BC950200A4960200104B10B5083303602A
:10C9C0000F4B0400C36080230E4A5B00C250C018A6
:10C9D000FDF764FB20000C4BB830E360FFF7B2FFBB
:10C9E0002000AC30FFF79EFF2000A030FFF78AFF49
:10C9F00020006C30FFF776FF200010BDD0960200BB
:10CA0000189702008498020030950200F8B50500DE
:10CA10000400AC356B68AB60A868002807D0C36819
:10CA200021009847AB68002BF4D01B69F3E7250081
:10CA3000B0352868002804D006690CF081FA30006F
:10CA4000F8E72200FC212860583213780B4013705D
:10CA500023005C33187020000A300BF0D6F9200058
:10CA600034300BF0D2F9606E002804D005690CF068
:10CA700067FA2800F8E725009835606628680028DE
:10CA800004D006690CF05CFA3000F8E72600A43602
:10CA900028603568002D05D02F6928000CF050FA69
:10CAA0003D00F7E72000356029000C226C300CF0C7
:10CAB000A0FA2000074BE567A36729000C2280300D
:10CAC0000CF097FA2300044A8C33903428001A6043
:10CAD0002560F8BDB97A0200AB7A0200444AF0B58D
:10CAE0000600C260A022434B1636083303600100E3
:10CAF000002342820400320085B003718360037416
:10CB000083823531137001329142FBD1802580221E
:10CB10002000AD00D201F377358411000093383046
:10CB2000002300F039FF23002100403303931A0053
:10CB30002B0000255F31157001328A42FBD1039A28
:10CB4000FC21D577220060321380137920000B403E
:10CB50001371230068331D70274B2567E3660C2291
:10CB6000002178300CF045FA2300270088331D603F
:10CB7000224B0837FB67843700210C2238000CF069
:10CB800038FA1F4B1F4AFB602300A0333D611A6037
:10CB90001D4A5D60DA601D4A1D619A61DD613000E9
:10CBA0000BF033F903980BF030F9194B601CE3607C
:10CBB0002300C4331D705D709D70FF3002F0FCFCDB
:10CBC0008C235B00E55023001933FF335D61802324
:10CBD000104A5B00E250230001222000FE33524243
:10CBE0005A86023B9D63DD631D6405B0F0BDC046FF
:10CBF00030950200D0960200F0940200B97A02004B
:10CC0000AB7A020000950200109502002095020008
:10CC1000189702008498020070B5074C2368002B17
:10CC200007D1A02040000CF08FF90500FFF756FF58
:10CC30002560206870BDC0463827002070B50C22E2
:10CC40000D00002104000CF0D4F900232361024BF5
:10CC500025602000E36070BDC77A020070B5002532
:10CC60000400254B85800360244BC5608360244B02
:10CC700085614361234B45620362234B0563C362B5
:10CC8000224BC563836329004430FFF7D7FF2000A0
:10CC900029005830FFF7D2FF200029006C30FFF741
:10CCA000CDFF1B4B2200236023008032F83320C2CB
:10CCB0009342FCD126001D00E936FF3628000822E9
:10CCC000002108350CF095F9AE42F7D18E230022F1
:10CCD0009B00E11804C6B142FCD18E2300219B00C9
:10CCE000E2540C4B0C4AE318A218198002339A4202
:10CCF000FBD1200070BDC0461C960200CC950200FE
:10CD0000DC950200EC950200FC9502000C960200F6
:10CD1000A49702003A02000062020000024B0B607E
:10CD2000092313607047C046CDA3020010B504006C
:10CD30000020FFF771FF03681B6998470300F33376
:10CD40001C7086235B00C05003000021044AFC33A2
:10CD50005A61044A99615A62F4300BF085FE10BDA5
:10CD6000E5800200F7800200012110B5044A0800A6
:10CD700002F0D6FB0023984200D00B33180010BD00
:10CD80002DCD0100F0B593B0019000200C00FFF70D
:10CD900043FF03685B6A984700F068FC06AB002815
:10CDA0000ED000221A7105AA0692082218001A73E2
:10CDB0000AAA9A6000F028FD002803D013B0F0BD45
:10CDC00018711873002727732771019BBA331B78DA
:10CDD000BB4242D907237B431A000199BB32CB18CF
:10CDE000BB331B788A180292022B2ED1002506AE87
:10CDF000337BAB4223D9AB000393089BAA0099581D
:10CE000002980BF011FC00281CD0B3689C46AB00C4
:10CE10001900237B614402939A000868A368D050EC
:10CE2000029B01332373337B5A1E954205D00C4875
:10CE30001B1860469B001B580B6006AB1A7301372A
:10CE4000FFB2C2E70135EDB2D1E72379216802983C
:10CE50009A00013350502371F1E70020AEE7C0463D
:10CE6000FFFFFF3FF0B50A7804009BB00D000220E1
:10CE7000012A08D04B88032A07D1A03B21499BB245
:10CE800010008B4207D91BB0F0BD203B1E4A9BB25D
:10CE900003209342F7D81D4BAA8803209A42F2D868
:10CEA0000AAB009312AB02936A460023260013716B
:10CEB0001373B8363378002B1DD104AF182200212C
:10CEC00038000CF096F82B7838003B7033783B72C2
:10CED0006B46FB606B883B82AB887B820BF026F84D
:10CEE00002000320002ACED10123583421781000FB
:10CEF0000B432370C7E769462000FFF743FF002874
:10CF0000DBD0C0E7603F0000E03F0000FF3F0000D3
:10CF1000F0B59DB01E006B4604001A70581C062226
:10CF2000229D0CF04AF8002E2ED0328802AB1A80D7
:10CF300072885A80B2889A80F288DA800CAB04AE8C
:10CF4000049314ABB36027000023B93733713373F4
:10CF50003B78002B1ED101223B78022708A9134001
:10CF600058000B784E60BB430343002D1AD12000BC
:10CF7000323000789343104003430B70A38D0B8134
:10CF8000E38D4B81238E17E01A4B029396239B046B
:10CF90000393D3E731002000FFF7F4FE0028DAD036
:10CFA0001DB0F0BDA8799343104003430B702B884C
:10CFB0000B816B884B81AB8802AA68468B810AF093
:10CFC000CBFF030000208342EAD00630082BE7D0D5
:10CFD00006D80130042BE3D0834209D10420DFE7D7
:10CFE0000520112BDCD0044A9342F7D0102BF5D04A
:10CFF0000B20D5E7320064000232000010B50400B7
:10D0000001F040FA034B1B68002B01D02000984729
:10D0100010BDC04640270020F0B58BB0050002F0DF
:10D020008BF80020FFF7F8FD036807001B6998479D
:10D030003B6804009B69380098473B6806005B6AC0
:10D04000380098470300288810380B2862D803F06E
:10D050009DF8063E6161615B616161676179AF88DE
:10D06000200039000BF0E0F822006B7B583201936E
:10D070001378A8799C46022361460B43137004ABD6
:10D080001F80012304AA9370D07013006A4612799E
:10D09000E91D9A722B000622163305A809930BF09E
:10D0A0008CFF29000B2004AB06220E31C0180BF0B8
:10D0B00084FF94346368A360A06800282AD0C36802
:10D0C00004A99847A368002BF4D01B69F3E720005C
:10D0D0002F49AF880BF0A8F82200022058321378AD
:10D0E000A9798343137004AB1F809970A0346368DF
:10D0F000A360A06800280DD0C36804A99847A3685E
:10D10000002BF4D01B69F3E75B69A888A91D002BED
:10D1100000D09847290030000BF06CF90BB0F0BD3F
:10D12000636E002BF6D0AF79A366A06E0028F1D015
:10D13000C36839009847A36E002B01D1636EF3E7F3
:10D140001B69F1E7012269460D27AB7BEF571A40B7
:10D1500001925A07920FDB080A720B730622E91D2F
:10D1600004A80BF02AFF6A46127904ABDA716A460A
:10D17000127A9F711A726A46127B20005A722B0033
:10D180000F3307938C348030236804A99847C1E794
:10D19000FFFF00000723D72802D9024B18600023A5
:10D1A000180070473C270020014B18607047C046AC
:10D1B000402700201FB58022A323D205DB00D358CF
:10D1C0000820DB0700D405301C4B48221C4900F026
:10D1D00023FD00280AD080B2002807D1BFF34F8F6B
:10D1E000184B194ADA60BFF34F8FFEE7002302A8FD
:10D1F000029301330370154B1B6843600BF01EF85C
:10D20000002802D0072005B000BD68460BF014F8D6
:10D210000028F7D169460BF00DF80028F2D10C4830
:10D2200000F02AFD80B20028EDD10A4800F02EFD62
:10D2300080B20028E7D100F0FFFAE4E74182020063
:10D240004427002000ED00E00400FA053C27002000
:10D2500019D00100FDCF010080B2002807D1BFF333
:10D260004F8F034B034ADA60BFF34F8FFEE77047DF
:10D2700000ED00E00400FA0513B504680093A4680B
:10D2800013000A000149A04716BDC046FFFF000079
:10D2900037B506AC2578046801950093246913001E
:10D2A0000A000149A0473EBDFFFF0000F0B587B06E
:10D2B0000D00002469466F4616004C800DAA0CA98B
:10D2C0000988127839800193A2421BD10100447968
:10D2D000F83194420DD908310F00083F3F88B7421A
:10D2E0001BD130212032920012580132D27F0A42E3
:10D2F00015D16A46310028000AF0AAFF002808D19B
:10D30000062407E06A46310028000AF0A1FF002841
:10D3100000D00324200007B0F0BD0132D9E710216E
:10D320000A4051424A41002002ACE3600CABA360CA
:10D33000174B01322680A270A0809D4207D1FFF7D3
:10D340006BFC03681B6998470AF071FF0500210018
:10D3500028000AF081FF002482B2A242DAD0112A0A
:10D3600013D00BD8082ACBD06A46310028000AF027
:10D370006FFF05240028CDD0023CCBE7054B9A4235
:10D3800003D0054B9A42EFD1BAE70524C2E7C04665
:10D39000FFFF00000330000001340000F0B505007D
:10D3A00099B008002E240C9100F070FA06ABE41836
:10D3B0001290220012A901200AF048FF002802D092
:10D3C000032019B0F0BD23880C9A0B9093830C9B1B
:10D3D0000B9A1B7D934200D8C6E06B791D2B01D9B7
:10D3E0000720EEE70C9B9B690D930B9B0D9A9B000E
:10D3F0009C586369002B07D1638B002B04D1631CFD
:10D40000DB7F022B00D1AAE0200000F03FFA2300CE
:10D410000026283312900E960D960F930F9B1B78C3
:10D42000B34221D9626AB3009F58342206AB9B18DD
:10D4300000221A700023002113AAD2180133517060
:10D44000102BF8D1462206AB9B184A4A13A9380084
:10D450001A800AF080FF002803D07B690D937B8B34
:10D460000E930136F6B2D9E76979A31C1F31C900C2
:10D470006918621CDB7FD27F089121002A3109786C
:10D480000020079121002931097806910E99059114
:10D490000D990491217F0391218B0291618B019160
:10D4A0006169009112A90BF0F6F8002800D087E717
:10D4B0006B7907001A00203292001F335451DB00B1
:10D4C0005B5BE3836B7901336B71230028331B783B
:10D4D000BB4244D98E239B00EB5C132B00D97FE722
:10D4E000626ABB009E580023180013A90B70CA186B
:10D4F00001335070102BFAD11E4B30004B820AF0D2
:10D500002AFF0D90002827D1300000F0BFF98E21AE
:10D5100089006A5C738B1E32FF325200AA18029295
:10D52000327F12900192328B12A9009272690D988B
:10D5300000F0FCF9002800D042E78E2189006A5CE7
:10D54000531CDBB26B541D337A32FF3392005B0005
:10D550005651EB185B88F3830137FFB2B5E70B98A0
:10D560000130C3B20B9332E72B79002001332B71CA
:10D5700027E7C0460129000070B505000AF073FCDA
:10D5800004000620002C1CD12800782221008030C5
:10D590000BF02FFD2800E93050222100FF300BF066
:10D5A00028FD280008222100F8300BF022FD054B51
:10D5B0002822E81821000BF01CFD8E2320009B0080
:10D5C000EC5470BD3A02000070B500200D00FFF76A
:10D5D00023FB03685B6A98472B780400142B1ED04A
:10D5E00003D8132B0CD0002070BD152B1FD0222B7D
:10D5F000F9D16B6818882369002BF4D09847F2E7BB
:10D600006B68012518889B78646819005A08DB0646
:10D6100029402A405B0F002CE5D0A047E3E76B6868
:10D6200018889978A368002BDDD09847DBE76868F5
:10D63000827813091207120F012A03D0022A0BD095
:10D64000002106E0013BDBB20021022B01D8064A93
:10D65000D15C0088E368E6E70421012BF9D00131B1
:10D66000022BF6D0ECE7C046D6A30200014B187897
:10D670007047C0462E2A0020F0B51D000023304F11
:10D6800087B000923A7806000C009A4204D100F06C
:10D690002DFF002803D00B23180007B0F0BD002D8C
:10D6A0000ED003A9222003950AF0BCFF002807D062
:10D6B00006230828F0D01138434243410433EBE7F6
:10D6C000002302AA1000137001F0F0FA0028E2D142
:10D6D00001251C4902220B782E40AB433343072619
:10D6E00093430193009B2C4033409340AC409C46B5
:10D6F000019B02AA1C431C239C4363461C430E232C
:10D700009B181880104B0C700393022303AC2371F9
:10D71000093002AB0522C0180BF04FFC21000B486A
:10D7200001F02EFB002807D033000428B4D0013BC1
:10D730000828B1D00533AFE73D700300ACE7C04621
:10D740002E2A0020F1210020C9D501002F2A002017
:10D7500010B5074801F0ECFB0023984206D00733D0
:10D76000042803D0013B082800D00533180010BD61
:10D770002F2A0020002373B501930F4B01AD1B78B6
:10D780000E0029002B7001F097FE041E05D0042323
:10D79000052800D00733180076BD3100280001F0BD
:10D7A00029FB23000028F6D007230428F3D0013BEF
:10D7B0000828F0D00533EEE72F2A002073B5114C6E
:10D7C0000E0005000522210068460BF0F6FB012E35
:10D7D00003D0022E10D002230CE002222378B343A0
:10D7E00093436946280023700AF01AFF00239842E9
:10D7F00000D00B33180076BD012322781343B343C6
:10D80000EFE7C046F1210020094B10B51A7801005E
:10D810000923002A09D0074801F024FB002398427D
:10D8200003D003330E2800D00333180010BDC046C8
:10D830002E2A00202F2A00201FB5002302ACA3802F
:10D84000104B01A80293C8235B00E380803BFF3BA1
:10D85000037005220C490AF0FFFE80B200280FD1A8
:10D86000802080000AF0F4FE80B2002808D1200059
:10D870000AF0F0FE80B2002802D10AF0E7FE80B282
:10D8800004B010BD28009001D9A30200F0B5438A6E
:10D8900085B00193037805000126002B35D0214A7D
:10D8A00000241100831900931F4B1F68A74210D05A
:10D8B0000023981E012804D90098D65CC05C8642DB
:10D8C0002CD10133102BF4D111235C4309190E7CA8
:10D8D0001BE000980AF0C8FE2B7807000600002B1A
:10D8E00001D112350095042C0FD0112565430D4B45
:10D8F00010225D19009928000BF05FFB0023AB702C
:10D90000EB70094B01342F741C6003AB9E70588878
:10D91000019B00040343180005B0F0BD013411322F
:10D92000C4E7C046302A00208C270020F0B589B01B
:10D9300000930EAB1B8805000F0016000193032215
:10D940000FAB002102A81C780BF053FB01230E2023
:10D950001C40DB181C4302AB9C700E4B02AA1380C8
:10D9600002AB06220021C0180BF043FB03AC02AB54
:10D9700063606B461B88109A23816B469B8821004D
:10D9800028000397A38126610AF06AFE80B209B0DD
:10D99000F0BDC04611110000F7B5FA26B60071437C
:10D9A000009308AB1B78040008001449170001938A
:10D9B00002F0F6FB85B23000258078430F4902F073
:10D9C000EFFB6B461B8880B2A3806B461B7960809F
:10D9D000A371032D01D80423238080232288DB0137
:10D9E0009A4200D92380032801D8042262806288E9
:10D9F0009A4200D963802000FEBDC046710200003B
:10DA0000F0B50D788FB0002D00D098E0514C02ABEE
:10DA10009A1D21000823068813803431073B30000B
:10DA20000AF0E3FE4C4B1B689847B1200AF0DFFE7A
:10DA3000002803D02A002900FFF70EFC0AF0D9FEC7
:10DA4000002803D000221100FFF706FC434D68694F
:10DA50000AF0D1FE0195002803D000221100FFF743
:10DA6000FBFB00233E4D30002900049301F024FD10
:10DA7000061E3AD108A9280001F0CCFA071E4CD1A5
:10DA80000C9E07223100200010310BF096FA310075
:10DA90001022E01D0BF091FA2000089E11223100A7
:10DAA00018300BF08AFA200031002A3012310A2295
:10DAB0000BF083FA20000AF0A0FE002803D03A0001
:10DAC0003900FFF7C9FB01230024049303330693B5
:10DAD00005A904AB28000793059401F055FAA0426C
