:020000021000EC
:1080000000400020510002008D0002008F0002009D
:108010000000000000000000000000000000000060
:1080200000000000000000000000000091000200BD
:108030000000000000000000930002009500020014
:108040009700020041AB01005DFD010097000200B6
:10805000970002000000000051FE0100970002009E
:1080600097000200C5F80100C1FD01009700020061
:10807000970002009700020097000200970002009C
:10808000970002009700020097000200970002008C
:1080900097000200C5F4010065DC010097000200B2
:1080A000970002009700020000000000000000009E
:1080B00000000000000000000000000000000000C0
:1080C00010B5064C2378002B07D1054B002B02D0AE
:1080D000044800E000BF0123237010BD20220020CF
:1080E00000000000E4A40200044B10B5002B03D0F4
:1080F0000349044800E000BF10BDC0460000000076
:1081000024220020E4A40200164B002B00D1144BC3
:108110009D46402292029A1A924600218B460F46B3
:108120001348144A121A10F054FF0F4B002B00D0C2
:1081300098470E4B002B00D09847002000210400E8
:108140000D000D48002802D00C4800E000BF0CF0E4
:10815000B1FA2000290010F0C2FC0CF095FAC046DC
:1081600000000800004000200000000000000000A7
:1081700018220020982A00200000000000000000C3
:1081800010B50400034B036040300DF0A2FA20004C
:1081900010BDC04668920200F0B5C8250F0000244B
:1081A00085B001906D00BC4214DC019AA300D35845
:1081B000094E0A49012B00D0094903A800F054FFD9
:1081C0002A0003A9300002F03DF903A80DF081FA5E
:1081D0000134E8E705B0F0BD28230020809E0200AE
:1081E000829E020010B5054800F012F90DF07FF8EC
:1081F000040000212000FFF7CFFFFAE73C22002017
:1082000010B5054C200000F043F8044A0449200052
:1082100010F07FFE10BDC0463C2200200020002050
:1082200025820100EB23194A9B0010B5C2501C3374
:108230000400C0180DF04DFAF1239B00E0180DF07A
:1082400048FA84239B00E01801F076FA2000C5303C
:10825000FF3000F095FF20008D30FF3001F032FA42
:1082600020006530FF3001F02DFA2000EC3001F0E5
:1082700005FF2000D03002F0DBFA2000643007F068
:108280004DF9201DFFF77CFF200010BD6494020013
:108290001423F0B5040095B000931922182104307E
:1082A00002F09EFC220027006432B4371321100034
:1082B000119207F03FF938000EF0B2F92200B832FF
:1082C00010921E21002210980DF061FE2000D03087
:1082D00002F0CEFA2200EC3212920621494A12989C
:1082E00001F0F0FE20000026012365301A00009600
:1082F0001121FF3001F0F2F920008D3000960123AA
:1083000002221A21FF3001F0E9F925002000C535CD
:10831000B530FF351A2302220121FF3002F066FB3F
:10832000109904233A22280000F0DAFF84229200F8
:10833000A218139205231D22019300923B002A00EC
:108340001099139801F0EEFB96229200129BA01850
:1083500013992A0001F0C0FD99229200A01839005B
:108360001C2202F069FD19239F220F93013B0E93FB
:10837000013B0D93013B0C93013B0B93013B0A9393
:10838000013B0993013B0893013B0793013B069393
:10839000013B0593013B0493013B0393013B029393
:1083A000013B01939200013BA01800930822013B7E
:1083B00007210DF0F4FDEB239B00E018390003F0DA
:1083C000DBF8F3239B00E0181D2102F055FBFD2391
:1083D0009B00E65011982670032110F0B0FA23009C
:1083E0002200200008499C33A0321C6011605660B6
:1083F000064A80305A610221012207F0DBFD20008D
:1084000015B0F0BD70920200215302000B53020020
:108410000123F0B5067889B004001E4000D0ADE01D
:10842000FD20800500F0DCFC2300D033180002930F
:1084300000F0B0FA00F0A6F9282000F009FD0500D0
:1084400010300DF0D7F94E4B18202B6000F000FDD6
:1084500007004C4B0460082231000C30069307964D
:1084600010F0B7FD06A9381D082210F096FD464B06
:1084700029007B611223AF60EE60AB802E626E62DA
:10848000029802F06DF9002805D028000DF0D7F809
:10849000280000F0FDFC01232278642013432370A0
:1084A00000F094FB002523006533FF33180003938D
:1084B0000DF04BFB00283CD020008D30FF300DF03C
:1084C00044FB002835D00A2D33D06420013500F05C
:1084D0007DFB0A2DE7D12D492D4800F057FCFD27E3
:1084E000EB23BF009B00E618E359002B1AD100F0E4
:1084F0005DF8010004A800F0B7FD05A80CF082FFAC
:10850000012305AA04A900933000029B03F088F818
:1085100005A80DF0DEF804A80DF0DBF8ED239B00B4
:10852000E358E3512100039AEC31300003F01EFAC6
:10853000B9E7FD2515491648AD0000F027FC66593E
:10854000002E1BD100F032F8010004A800F08CFDD1
:1085500005A80CF057FFEB239B00E01805AA029B2F
:1085600004A9009603F05CF805A80DF0B2F804A881
:108570000DF0AFF8ED239B00E358635109B0F0BD57
:10858000FD0300009353020053530200002000201B
:10859000001C0020BFF34F8F024B034ADA60BFF389
:1085A0004F8FFEE700ED00E00400FA05F0B58DB056
:1085B00005AF19221549380010F0EFFC0022144BCA
:1085C00005245A7180225205566E0122250001941D
:1085D000029203930199300007F04AFE08000299C5
:1085E00007F0C0FD019B03996B430193029B361A70
:1085F0006B430293631E2C1B6C433C19225C1C1EB4
:10860000CA54E7D108000DB0F0BDC046BA9E0200C2
:10861000C6290020F0B597B018220021060010A846
:1086200010F0D7FC132110A810F0C8FA032110A8ED
:1086300010F093FB4C4B1B68002B00D10133DBB2D5
:1086400002934A4A012300210BA807F0EDFB484B97
:108650009E4200D9002672B6464B64211D68464BE7
:1086600030000793052407F007FE604350302818B8
:1086700008900A21300007F0FFFD0A2107F0E2FE12
:10868000614350316918099130000A2107F0DAFE80
:10869000802361430024503169189B010A910193A2
:1086A000029B002B5DD0002500272E1F07AB9B19D6
:1086B0000593032C03D1802300249B01019307AB76
:1086C0005B592E4A03936300D318049300231900C7
:1086D00006205843049A16187678B4466246039EDC
:1086E000B25C10269446049A105C6246064116421B
:1086F00002D00120984001430133092BE8D1C9433E
:108700001F4B059A090119401268039B934225D11A
:10871000312F23DC00210BA810F0F1FBFA23159A6E
:108720001199DB00106801421BD0013B002BF9D1ED
:10873000019B01345B000193FA230137E4B25B0033
:108740009F42B6D10435102DAED1074B1B68002BCC
:10875000A6D0029F013FFBB20293A1E7019B194300
:10876000D9E7FFF717FFC04638260020F0FF0000CA
:10877000E703000004200020099F0200D39E0200AE
:10878000F01F0000F8B50023124C23600CF05BFED4
:10879000002808D0042120000CF051FE002801D050
:1087A0000D4B2360F8BD0122A12704250B4B0C497A
:1087B0001A602268FF0048604E68002EFCD0DE5927
:1087C0001202013D3243002DF5D1226001225A6090
:1087D000E8E7C04634260020ED5EBC0B00D0004028
:1087E000FCD00040F0B585B01F000AAB1B88060026
:1087F000029115000393002F1CD0282000F028FBC5
:108800006B4604001989039BAAB200933B000CF04D
:10881000FFFE336821005B683000984700280AD0CB
:10882000002C05D020000CF00AFF200000F030FBE7
:10883000024800E0024805B0F0BDC04616FCFFFF4C
:1088400017FCFFFF0B4B70B51C68002C10D0656D3A
:1088500000F0C6FBA36C002901D1834206D820009A
:108860000CF024FE044920000CF00EFE2C00ECE776
:1088700070BDC0464026002060260020F0B593B0B1
:1088800007932A4B04AC1E68049005910692002EB3
:108890004AD0274B258867881C6800230293002C48
:1088A0002ED0636D23480393A36C9AB2A36C1B0C68
:1088B00099B2854214D12048824211D1002B01D0B7
:1088C000B9420BD1029B002B08D120000CF0EEFD29
:1088D0001A4920000CF0D8FD01230293039CDEE727
:1088E000002A01D09542F9D1002B01D0B942F5D12F
:1088F00020000CF0DBFD114920000CF0C5FDEDE778
:108900000F4BEB18012B0FD910233A0000932900CD
:108910000C4B08A80CF07CFE336808A99B6830005B
:10892000984708A80CF08BFE13B0F0BD3C26002041
:108930006C260020FE030000FF03000060260020DC
:1089400002FCFFFF7D88010010B572B60B4B1C685E
:10895000002C08D020000CF0A9FD0023E364084B94
:108960002000E36310BD62B65C2000F071FA5C2267
:108970000021040010F02DFBEFE7C0466426002024
:1089800000400020024B1878012318407047C04671
:10899000CC290020F7B50600FFF7F4FF051E33D100
:1089A0001A4C2660FFF7D0FF194B1A4918600CF0DB
:1089B0006BFDFFF7C9FF184B1860184B4363184B4A
:1089C0008363206800280ED0C027164E2A0033008B
:1089D00015490097FFF706FF009733002A00134957
:1089E0002068FFF7FFFE0C2000F032FA002383809E
:1089F00083710F4B03600F4B836000F009FB012371
:108A00000D4A11780B431370F7BDC0463C26002079
:108A1000702600206026002068260020FC3F0020F1
:108A2000735502007D880100FF030000FE03000073
:108A30009092020045880100CC290020F7B506007D
:108A40000D0017000193002802D100242000FEBD74
:108A50000029FAD0FFF778FF041EF6D0074B019AE1
:108A60004363066045608760054B002A00D0054BD4
:108A7000A363054920000CF007FDE7E7FC3F002059
:108A80003D5502005B55020060260020024B18682D
:108A9000434258417047C04660260020002310B56D
:108AA00004499C006258002A01D00133F9E7605064
:108AB000100010BD48260020002310B5044A99007C
:108AC0008C58844201D00133F9E70020885010BD52
:108AD0004826002010B50024084BA200D0580028DA
:108AE00002D003685B6898470134062CF4D1044B2C
:108AF0001B68002B00D120BF10BDC04648260020B7
:108B000060260020F8B5FFF73DFF00281BD0294D57
:108B10002C68E36CDA0717D502263343E364042399
:108B2000254F3868C26C1343C364636BC3630CF096
:108B3000E3FC3868416C03F016FB2868C36C3342D1
:108B400001D003F04AFBF8BD1C4F1D4E3A68316856
:108B5000002A1ED129602A688A4208D11B0706D53F
:108B60002C60FFF7B7FF3B68002BFAD02B60296819
:108B70008C42E8D03368994214D1124B4B63124BAC
:108B80008B6320000CF0B8FC2968626C4B6C2000F1
:108B90000DE0206DB84203D1606D002800D00200C6
:108BA0002A60D8E79C42ECD1002210004B6C03F005
:108BB00099FAC8E77026002044260020602600208D
:108BC00068260020FC3F00207355020070B50500A8
:108BD000FFF7D8FE002803D1280010F0B2F870BDCE
:108BE0000C4B1C68E36CDB0706D5FFF7ADFE0A4BA8
:108BF0001860002800D0040000F0F2F92D18A564D8
:108C000020000CF053FC054920000CF03DFCFFF760
:108C100079FFE4E77026002044260020402600204B
:108C2000F0B51E4B1E4F1C683B6885B006000391D3
:108C3000002B30D0FFF7A6FE00282CD0E36CDB071A
:108C40000ED5FFF781FE174B051E186008D00CF0FB
:108C50002DFC154928000CF017FC2C00FFF752FFE3
:108C6000039B20001B043343A3640CF01FFC200073
:108C70000E490CF009FC0E4B0024F318012B07D908
:108C8000C0230093039A0B4B31003868FFF7AAFD0D
:108C9000200005B0F0BD084CFAE7C0467026002061
:108CA0003C26002044260020602600206C26002060
:108CB00002FCFFFF7D88010016FCFFFF10B5FFF7E7
:108CC00061FE002809D0054C20680CF0EFFB044938
:108CD00020680CF0D9FBFFF715FF10BD70260020AF
:108CE00064260020F7B507000D0000282ED0FFF7FE
:108CF00049FE00282CD00724164E3068C36C1C4057
:108D000007D0154A290038000CF0E7FB00242000AA
:108D1000FEBD03F04AFA02213268D36C194001917A
:108D200003D003218B43D364F1E701242343D364AD
:108D30002800B8473268D36C1900A143D164019C64
:108D40005B07E4D528000CF000FCE0E7034CDEE70D
:108D5000034CDCE7702600204B55020017FCFFFF98
:108D600016FCFFFF020010B5014B12CB12C210BD62
:108D700074260020034B1A68034B1A607E225A6047
:108D80007047C046042000207426002070B5104DA6
:108D90002B78022B18D0814218D90B1A072B15D922
:108DA0000C00032304431C4010D172B62A78094BEF
:108DB000D200D050981841600CF0E1FB2B780133C1
:108DC0002B7062B6200070BD0348FCE70348FAE749
:108DD000CD2900207C26002013FCFFFF17FCFFFF9D
:108DE00070B50021041C07F04FFB002828D1FE219C
:108DF000201C890507F052FB002821D104300BF01C
:108E00007DFC05000F48401B08F028FB211C07F0E3
:108E1000C5FF07F077FB03239843040028000BF0FD
:108E200077FC20000BF06AFC002804D1203C002CC9
:108E3000F7D1054803E00119FFF7A8FF002070BD36
:108E40000248FCE70038002013FCFFFF17FCFFFF7F
:108E500070B5060000250C4B1B78AB4209DD0B49B1
:108E6000EB00C91830000CF092FB041E09D101354B
:108E7000F1E730000BF042FC041E02D11420FFF792
:108E8000C9FB200070BDC046CD2900207C260020F3
:108E900070B5002813D00D4B0D491C7800239C425F
:108EA00010DDDA00555885420AD28A18526882428B
:108EB00006D98023043802681B061343036070BD83
:108EC0000133ECE70BF024FCF9E7C046CD29002084
:108ED0007C26002070B5051E14DD0B4E0B4C33684C
:108EE000002B02D020680FF0A7FDFA212068002493
:108EF000074B89008361C462694335600FF0A4FDAC
:108F0000200070BD0348FCE78C260020BC26002012
:108F1000BD8F010017FCFFFFF8B5114F06003D683B
:108F2000002D0AD13020FFF793FF040006F026FB46
:108F30000C4BA5612360E5623C600B4D2B68002B58
:108F400009D11020FFF784FF04000FF03EFD200040
:108F50002C600FF014FD3000FFF7BCFFF8BDC046D9
:108F6000BC26002008980200B8260020014B186893
:108F70007047C0468C26002070B50D4C2368002B2E
:108F800003D00C4B1B68002B02D10620FFF7C4FF57
:108F900020680FF00BFD02000749C3170D684E68EB
:108FA0005219734120680A604B600FF005FD70BDD7
:108FB000B8260020BC2600201822002010B5FFF79C
:108FC000DBFF0024054BA200D058002802D0036824
:108FD0001B68984701340A2CF4D110BD902600205C
:108FE00010B5FFF7C9FFFA22034B920018685968C1
:108FF000002307F067FA10BD1822002010B5FFF714
:10900000BBFF024B1868596810BDC04618220020EB
:109010000B4B10B51B680400002B03D0094B1B68D9
:10902000002B02D10620FFF777FF0023064A9900A4
:109030008858002801D00133F9E78C5010BDC04694
:10904000B8260020BC26002090260020002310B562
:10905000044A99008C58844201D00133F9E700207A
:10906000885010BD9026002010B50400002902D0C1
:109070000B78002B03D1034B2360200010BD0CF0B4
:109080002FFBFAE7A0920200F8B504000E001500CD
:1090900000290AD00B78002B07D0002A05D0080041
:1090A00097B20FF0D6FF874203D90B4B2360200005
:1090B000F8BD681DFFF7CCFE20600CF0F3FB2368C1
:1090C0002A005F8023683100181D0FF066FF2368B7
:1090D0005D1900232B71EAE7A0920200014B0360A7
:1090E0007047C046A092020010B50548054C2060AC
:1090F0000CF0DBFB044A054920000FF00AFF10BD0D
:10910000A0920200C026002000200020D3560200BA
:10911000084B73B51C680500002C0AD001002668B6
:109120000831082268460FF038FF0CCD3168200066
:10913000884773BDC426002010B5054C01212000CE
:109140000CF0A7FB034A044920000FF0E2FE10BD1B
:10915000C8260020002000204F5802000388074A3C
:1091600010B50120934208D0834202D00020DB07D3
:1091700003D41E20FFF74EFA002010BDFFFF0000B1
:1091800010B50400034B08330360FFF795FC200083
:1091900010BDC046E8920200FA2270B543899200E1
:1091A0005343314A31491400050038348B421BDCEB
:1091B0002F498B4218D82F49083C8B4214D82E498E
:1091C000083C8B4210D82D49083C8B420CD82C49C6
:1091D000083C8B4208D82B49083C8B4204D82A49CA
:1091E00014008B4200D90834284B2A7B1E1D042A08
:1091F00003D89E1C022A00D81E00FA21206889008C
:1092000006F0B0FF337868812B7300222A212800F2
:109210000CF06FFB002801D01D4870BD10222B21DF
:1092200028000CF066FB0028F6D101222D21280031
:109230000CF05FFB0028EFD101222E2128000CF05A
:1092400058FB0028E8D172780E2128000CF051FB61
:109250000028E1D1012223792A211A4328000CF0A9
:1092600048FB0028D9D0D7E7A892020000C4090023
:109270000071020080380100204E0000102700001D
:1092800088130000C4090000E2040000E9A0020005
:109290000EFCFFFF7FB515000F226A4404001E007C
:1092A0001170002D16D0002B14DD012301890093CD
:1092B000006B01F0D1F9002802D0074804B070BD5E
:1092C0000090218933002A00206B01F07BF90028EF
:1092D000F4D0F2E70148F1E70EFCFFFF17FCFFFFB7
:1092E000F7B50600002501931E4B14360833040021
:1092F000036085808571C581058245820F000092DB
:109300002900182230000FF064FE1C2130000FF0FD
:1093100055FC6B469B880221A3806B461B8822006C
:1093200023811423A5712173A563A58763813E3230
:10933000137827638B43F1310B4013702300957230
:1093400095810135221DD5870833A21DD5872000C0
:10935000DD87FFF721FF002802D1A3791D43A57106
:109360002000FEBDE892020030B50425837987B065
:1093700004002B4204D1FFF791FBA3791D43A57193
:10938000A36AA2691B6800251A4208D106236A460F
:1093900001212000FFF77EFF051E03D0114D28009C
:1093A00007B030BD6B460222042069469A56185613
:1093B000237BD2005A43228202220978C00049B29C
:1093C000C900594343436382A379E1819343A37165
:1093D00020000CF09CFA0123A1881A0002A80CF0CE
:1093E00013FADCE70EFCFFFFF8B50400FFF7BCFF43
:1093F0000E22A35E794F5B42BB4251DA23003E331B
:109400001B789B074CD50125210028003E310B78A5
:109410005A08904302000220AA40834313430B7072
:109420002000FFF7A1FF1022A35E5B42BB4248DA97
:1094300023003E331B785B0743D50125210028001C
:109440003E310B789A0890438200042083431343F3
:109450000B7026002000FFF787FF1222A35E48361C
:10946000BB423EDA23003E331B781B0739D521006F
:1094700001223E310B78D80882430820D200834372
:1094800013430B703378032B3BD80133DBB23370BB
:10949000012B00D08DE0230000224A331A8030E0F7
:1094A0002000FFF761FF0E22A35EC8225B4252003C
:1094B00000259342B4DD23003E331B789B07A2D5E1
:1094C000AEE72000FFF750FF1022A35EC8225B42E8
:1094D00052009342BDDD23003E331B785B07ACD5C1
:1094E000B7E72000FFF740FFC8231221625E5B0050
:1094F0009A4204DD23003E331B781B07B7D5002DAD
:10950000C0D13278002A14D02100270001254A3129
:109510000B883E3701339BB20B803878AC46054050
:1095200055D01D2B05D963469843002338700B8016
:10953000337020000CF057FA294A0723904244DD8B
:109540002000FFF711FF0E23E25E264E5242032356
:10955000B2423ADBC8252000FFF706FF0E23E25E89
:10956000AD0052420423AA422FDC2000FFF7FCFE8C
:109570001023E25E02235242B24226DB2000FFF7B4
:10958000F3FE1023E25E01235242AA421DDC2000BA
:10959000FFF7EAFE1223E25E0523B24215DB20004C
:1095A000FFF7E2FE1223E25E0623AA420DDC00234F
:1095B0000BE0042BA5D122003E321178033B0B4374
:1095C000137000234A3423800B331800F8BD092B95
:1095D000AFD9013A0D803270ABE7C04670FEFFFF95
:1095E000FF700200E0FCFFFF70B5C369C1681A6834
:1095F000451D8AB00400EB7F114255D0002B58D195
:10960000EB7F082B0DD90122A379134209D1134313
:10961000A371A188130006A80CF0F6F8FFF7E0FC90
:109620002062EB7F012B23D80123A2791A421FD09D
:109630000025A188A571022202A80CF0E5F8A31D5F
:10964000DE7F012E14D1FFF7CBFC2B00226A801A9B
:10965000994100900191019BA188AB4203D1174B26
:10966000009A9A4227D90123042206A80CF0CCF8CC
:109670000322A3791340012B14D1FFF7B1FC00237F
:10968000226A801A9941994202D10D4B984209D918
:109690000223A279A1881343A3710522012306A8FE
:1096A0000CF0B2F80AB070BD0B2BA9D80133EB77E0
:1096B000A6E7013BFBE733000322D6E7E703000000
:1096C000DB05000010B50400034B08330360FFF70F
:1096D000BDFC200010BDC04600930200F0B507009D
:1096E00000250E0085B002930AAB1B780837039360
:1096F000104B0400083303600192858085712900B6
:10970000182238000FF065FC039A310038000FF082
:109710005AFA6B466A469B88127AA380A31DE671AB
:10972000DA77631D25622000DD77FFF771FC2000EA
:1097300005B0F0BD0093020010B50400034B0833E0
:109740000360FFF7B9F9200010BDC0467093020016
:109750007FB515000F226A4404001E001170002D11
:1097600016D0002B14DD012301890093C06B00F09B
:1097700073FF002802D0074804B070BD0090218913
:1097800033002A00E06B00F01DFF0028F4D0F2E760
:109790000148F1E70EFCFFFF17FCFFFF002330B587
:1097A00085B003AC217001890093050001332200CC
:1097B000C06B00F051FF002802D0094805B030BD51
:1097C00020802989009002232200E86B00F0FAFE35
:1097D0000028F2D1237860781B02184300B2EDE72D
:1097E0000EFCFFFF13B56B46DC1D00232200237027
:1097F0000133FFF7ADFF002801D1207816BD0148E5
:10980000FCE7C0460EFCFFFFD0B504000CF0C5F924
:10981000E268A369981A09F06FFA06000F0023693D
:10982000E069C01A09F068FA32003B0009F0B2FDA5
:109830000022104B08F070FC0F4A104B08F06AF938
:1098400009F0E6FA0021041C06F014FE002804D0FA
:10985000201C0B4906F030FF041C201C09F086FA7E
:1098600002000B000020074908F0C8FE09F00EFABC
:10987000D0BDC04600806640EA2E4454FB2109401A
:109880000000B44300807640F0B5050085B0006C60
:109890000CF046F9061C286C0CF039F90221071C63
:1098A00028000CF0ABF90221039028000CF0B8F965
:1098B00007F08AFD0221041C28000CF0C3F907F010
:1098C00083FD051C301C09F027FD0290301C09F0B7
:1098D000E5FC0190381C09F01FFD061C381C09F03E
:1098E000DDFC071C039807F06FFD391C07F056FAE2
:1098F000311C071C201C07F051FA029907F04EFAA0
:10990000011C381C06F0D8FE311C071C281C07F06F
:1099100045FA019907F042FA011C381C06F0CCFE0A
:109920000299061C281C07F039FA0199051C201C15
:1099300007F034FA011C281C07F062FB311C09F007
:109940002DFD0D4907F02AFA09F010FA0B4A0C4BCD
:1099500008F0E0F809F05CFA0021041C06F08AFD2A
:10996000002804D0201C044906F0A6FE041C201C7C
:1099700007F00AFD05B0F0BD0000B443EA2E4454E0
:10998000FB21194070B50022102104000CF0F7F8FB
:109990001B4D00282DD1032608212000FFF722FFB0
:1099A000A84226D0304226D1FA2163898900594342
:1099B0005023144AD518D058884204D3D518083BF0
:1099C00018000830F7D1FA212868890006F0CAFB90
:1099D000A0226081112120000CF0D1F8002808D1CC
:1099E00001222B7910211A4320000CF0C8F800281E
:1099F00000D0034870BD6420FFF7E8F8CCE7C0460C
:109A00000EFCFFFF189302007FB504258379040044
:109A10002B4218D102260CF0C0F8A379A188B343D9
:109A20002B43A3710622012368460BF0EDFEA079BB
:109A300003003040AB43A37143425841034B4042C3
:109A4000184004B070BD0248FBE7C04614FCFFFF9D
:109A500015FCFFFF10B5837904005A070DD49B074E
:109A600001D4FFF7D1FF236C2000002B02D0FFF7B9
:109A70000BFF10BDFFF7C8FEFBE70148F9E7C04642
:109A800015FCFFFF70B5466C86B001AC0500019176
:109A90006260A360002E0CD00B4905A8FFF7E4FA22
:109AA0000C23220005A930000CF0F9FD05A80BF0ED
:109AB00010FE2B000C3307CC07C30223AA791343F3
:109AC000AB7106B070BDC046EFA00200642330B594
:109AD00004000281438185B08180FFF753FF022299
:109AE000A379606C9343A371002813D00C490CF048
:109AF0009DFD051E0ED001000C22103101A80FF0B3
:109B00004CFA20000199029A039BFFF7BBFF280043
:109B1000FFF7BEF90123A2791343A37105B030BD4D
:109B2000EFA00200F7B5009308AB1B880400019377
:109B300009AB1D8800230F0016000D4A83800832F0
:109B400083710260C360036143618361C361036227
:109B50001D2124300CF006F8009BE76326642900E1
:109B600020006364019AFFF7B1FF2000FEBDC046EC
:109B70007093020082B0F0B50400A5B064202B936E
:109B80002A920FF0DEF804220C2109A802F086FBCD
:109B90002422CC491BA80FF000FA052206A81100C8
:109BA0000DF04BFEC84907A802F024FCA06800F0A5
:109BB00081FBA568C54918A8FFF756FA782218A9AD
:109BC000280000F0A5FC18A80BF083FD6E2564208A
:109BD000013D0FF0B6F8002DF9D1A06800F06AFB46
:109BE000A0680CF0CFF9012160680BF010FF012193
:109BF000070060680BF01EFF06000A200FF0A1F8B6
:109C00000022B34B03929F4210DB013203923A00D1
:109C1000C8320BDBC822042192000391974205DC75
:109C200003220392C82F01DC013A039200279E42CF
:109C30000CDB33000137C83308DBC82303379B0034
:109C40009E4203DC013FC82E00DC013F06A80DF058
:109C5000EBFD0026032373431BA9CA189078002844
:109C600005D0C95C5278FF2306A802F057FB0136E5
:109C70000C2EEFD16B463AB20C21595E06A8FF2399
:109C800002F04CFB0023A06800931A00743006A970
:109C90000DF0DAFD002304930323049A0398534341
:109CA0001BAA995C814237D1D31805935B78BB42DC
:109CB00032D1059B9E78002E2ED1310020680BF00A
:109CC0009DFF07F081FB3200031C290009A80CF05E
:109CD0006FFF310020680BF0A3FF07F075FB012236
:109CE000031C290009A80CF063FF310020680BF069
:109CF000A9FF07F069FB2900031C022209A80CF048
:109D000057FFFE2303229B05290009A80CF050FFF2
:109D10000123059AED189370049B013304930C2BD7
:109D2000BAD164200FF00DF80B2D00DC5BE709A819
:109D30000CF02AFF012201000CA802F0AFFA002566
:109D400009A80CF021FFA8423CDD2900002209A847
:109D50000CF01CFF0022061C290009A80CF016FFBD
:109D6000011C301C07F01AF82900061C012209A862
:109D70000CF00CFF0122071C290009A80CF006FFBB
:109D8000011C381C07F00AF8311C06F095FC29006C
:109D9000061C022209A80CF0F9FE02222900071C69
:109DA00009A80CF0F3FE011C381C06F0F7FF311C6B
:109DB00006F082FC2900031C00220CA80CF0F8FE1F
:109DC0000135BDE709AA1100012318A80CF00AFF0C
:109DD00018A90FA80CF063FF18A80CF0FAFE0CAA43
:109DE00009A912A801230CF0FDFE002312AA0FA955
:109DF00015A80CF0F7FE002215A811000CF0C6FE05
:109E00000022061C012115A80CF0C0FE0022051C32
:109E1000022115A80CF0BAFEFC21071C8905301C94
:109E200006F0BCFF07F0B0FAFC2106001890890587
:109E3000281C06F0B3FF07F0A7FAFC2105001990D3
:109E40008905381C06F0AAFF07F09EFA2A000300D5
:109E500031001A902068FFF715FEA0680CF092F808
:109E600007A908A8A5680DF0D7FC0022194B00929D
:109E700008A901932800130000F0BAFA08A80DF011
:109E8000BEFCFA2080000EF05CFFA0680CF07AF8AF
:109E900015A80CF09EFE12A80CF09BFE0FA80CF06B
:109EA00098FE0CA80CF095FE07A80DF0A8FC06A8DB
:109EB0000DF0A5FC09A80CF08CFE25B0F0BC08BC88
:109EC00002B01847FAA002001EA1020063A102001E
:109ED000E0FCFFFFDC050000F7B583601D4B0500CB
:109EE0001F6801604260002F31D02820FEF7B0FFCC
:109EF000040010300BF07EFC174B18202360FEF797
:109F0000A7FF00220600154B0192056008320021D0
:109F10000C3000930FF05DF808226946301D0FF0F9
:109F20003CF80F4B00227361C223A3803B68E260C0
:109F3000A660226262625B682100380098470028B0
:109F400005D020000BF07BFB2000FEF7A1FF2800CE
:109F5000FEBDC046C426002005000600759B01001A
:109F60005D5C0200F0B5040085B0637A9C46002B6E
:109F700004D120000BF09DFE05B0F0BDA37A266F42
:109F800001931023019AF35600259B1801229A4051
:109F90002900F36803920293029BAB4231DDB36860
:109FA000019A6B439B1872695B00E77AD3181A78A1
:109FB0005878E379012F14D15F1E3F1A10003A0040
:109FC0005B004343606F8218D3189B79634500DDC3
:109FD0006346627B1A4202D00123AB40194301352C
:109FE000DAE7022F05D15F1EBA1A277A013F381A25
:109FF000E6E7032FE4D1277A013FBF1A02003800B9
:10A00000DEE71123C943F356606C99402369194078
:10A01000039B19430EF073FFA27B072AACD8637B26
:10A020000C495B006373531CDBB290004158A3736F
:10A03000022A03D808000EF079FE96E7064B2000AE
:10A04000236300236363054BE462236414300EF042
:10A05000FBFC91E788930200659F01009D5C020074
:10A0600010B50400044B03600EF0E6FC200005F080
:10A070009BFA200010BDC0460898020010B50400ED
:10A080000E4B08330360FEF7E1FF200074300DF043
:10A09000B6FB200060300DF0B2FB200058300BF012
:10A0A00018FB200050300BF014FB2000044B143040
:10A0B0006361FFF7D5FF200010BDC046A8930200E2
:10A0C0003C980200F8B500250400324B8580083327
:10A0D00003608571143016000F0005F04FFA200060
:10A0E0002D4BE562636125645030FEF7F7FF2000D9
:10A0F0005830FEF7F3FF2000603002F009F920002D
:10A100000423F25E33682667590009B274300DF0FB
:10A1100094FB3368226FE371736801262372102366
:10A120006581A7802561D35691685918994204DD4D
:10A130003000984001330543F8E711230120D3563E
:10A14000D1685918994206DD02009A402669013308
:10A1500032432261F6E71420FEF77AFE22690021DD
:10A160002A430123060005F05FFEFF2322006372ED
:10A170000133A381002348326664A3732000137067
:10A18000A366FEF745FF0123A27920001343A371C4
:10A19000F8BDC046A89302003C980200F0B5437A8F
:10A1A00085B00400002B04D120000BF082FD05B027
:10A1B000F0BD0122837A11009C461023066F002512
:10A1C000F35603926344994002912900F368019386
:10A1D000019BAB422CDDB36872696B4363445B0047
:10A1E000E77AD3181A785878E379012F10D15F1ED7
:10A1F0003F1A10003A005B004343606F8218D31887
:10A200009B79002B02D0039BAB4019430135DFE75C
:10A21000022F05D15F1EBA1A277A013F381AEAE7E2
:10A22000032FE8D1277A013FBF1A02003800E2E786
:10A230001123C943F356606C994023691940029B6E
:10A2400019430EF05CFE667AB31EDBB2FC2B14D809
:10A25000FEF78CFE0B4B0500236300230A48636363
:10A260000A4BFF21E4622364704306F005F82900DD
:10A270004143200014300EF0E7FB637A012B00D934
:10A2800095E791E7B35C0200B60300009D5C020015
:10A290001FB5012381881A0068460BF0B5FA012327
:10A2A00003491A0068460BF0AFFA05B000BDC0467E
:10A2B000FE0300001FB5030048331A780400002A8B
:10A2C0000DD000221A70012381881A0068460BF015
:10A2D0009BFA012304491A0068460BF095FA200006
:10A2E00074300DF0A1FA1FBDFF03000010B5483017
:10A2F0000378002B06D00378012B03D001210248FC
:10A300000BF013F910BDC046FF03000010B501218A
:10A31000040006200BF009F9064B984208D1483496
:10A320002378002B04D02378012B01D020BFF7E73E
:10A3300010BDC04616FCFFFF70B50600141E19DBE9
:10A34000050048352B78002B02D02B78012B13D138
:10A35000002330001A00743002F09CF8002C07D063
:10A3600033004A331C80002407234C3634802B7082
:10A37000200070BD014CFBE7014CF9E717FCFFFF23
:10A3800012FCFFFFF8B517000A68050052880B00A1
:10A39000012A09D1002118000BF01FFA0022010048
:10A3A0002800FFF7C9FFF8BD002F19DD0600483669
:10A3B0003278002A02D03278012A13D12A000024F0
:10A3C00028005C321900148058300BF0E1F92B00A2
:10A3D0004A331F8003234C352C8020003370E2E782
:10A3E0000148E0E70148DEE717FCFFFF12FCFFFF32
:10A3F00073B5079C0500002C1CDB0600483630783E
:10A40000002802D03078012816D106981BB2C0B2BD
:10A410000090280012B274300DF016FA002C07D00C
:10A420002B004A331C80002407234C352C803370CA
:10A43000200076BD014CFBE7014CF9E717FCFFFF5C
:10A4400012FCFFFFF7B505000E00171E26DDFFF713
:10A450004DFF2B0048331C78E4B2002C20D1336828
:10A460005B88012B09D1210030000BF0B6F92200E6
:10A4700001002800FFF760FFFEBD310001A80BF0CE
:10A480007FF93A0001A92800FFF77CFF01A80BF033
:10A4900020F92800FFF73AFF2000EDE70148EBE73D
:10A4A0000148E9E717FCFFFF11FCFFFFF0B587B09B
:10A4B0000D9C06000F0002920393002C20DBFFF797
:10A4C00015FF330048331D78EDB2002D1AD1390045
:10A4D00005A80DF0A1F90C9B01940093029A039B2F
:10A4E00005A93000FFF784FF05A80DF088F9002CBE
:10A4F00003D03000FFF70AFF2C00200007B0F0BDAA
:10A50000014CFAE7014CF8E717FCFFFF11FCFFFFD5
:10A51000F8B50400171E1DDD060048363378002B01
:10A5200002D03378012B17D12200E3795632013B58
:10A53000137023000025200054331D8050300BF091
:10A5400027F923004A331F80022328004C3425803A
:10A550003370F8BD0148FCE70148FAE717FCFFFF3C
:10A5600012FCFFFFF7B505000F00161E18DDFFF700
:10A57000BDFE2B0048331C78E4B2002C12D1390008
:10A5800001A80BF0FDF8320001A92800FFF7C0FF79
:10A5900001A80BF09EF82800FFF7B8FE2000FEBDD2
:10A5A0000148FCE70148FAE717FCFFFF11FCFFFF39
:10A5B000FF2902D84172002070470148FCE7C046DD
:10A5C00017FCFFFFF0B51F0085B00AAB1B78040035
:10A5D000039300933B000D0016000EF05BFA002879
:10A5E00033D0237D082B2DD8236800221900FC319D
:10A5F0008A62A021C9005A50154905205A500138D5
:10A60000C046C046C046C046C046C046C046C0461A
:10A61000C046C046C046C046F1D1236801325A50F8
:10A62000A0210432C9005A5005F0EAF8039B320019
:10A63000009329003B0020000EF02CFA237D01330B
:10A640002375CCE7034805B0F0BD2075FBE7C04695
:10A65000FC0F00000EFCFFFFF0B51F0085B00AAB39
:10A660001B780400039300933B000D0016000EF0CE
:10A67000F9F9002833D0237D082B2DD82368002238
:10A680001900FC318A62A021C9005A5015490520E1
:10A690005A500138C046C046C046C046C046C046B3
:10A6A000C046C046C046C046C046C046F1D1236839
:10A6B00001325A50A0210432C9005A5005F0A0F8C6
:10A6C000039B3200009329003B0020000EF0CAF9E2
:10A6D000237D01332375CCE7034805B0F0BD207519
:10A6E000FBE7C046FC0F00000EFCFFFFF8B50D1E97
:10A6F00030D000260227C468002C28D0AA88A3885E
:10A7000053403B4204D13A4204D1AB883B4219D07A
:10A71000646AF1E7A968A0680CF025FA0028F4D073
:10A720002B88002B02D022889A42F1D16B88002B13
:10A7300002D062889A42EBD1A288074B01361343BC
:10A74000A380E5E7A368AA689342E1D1E8E7200087
:10A75000002E00DC0148F8BD0080FFFF17FCFFFF62
:10A76000F0B5060085B00D1E59D00127C468002C35
:10A7700022D00221AA8800230A4202D0A3885B08C3
:10A780003B40226829688A4210D1A068A968002B42
:10A790000AD00CF0E8F9002808D0A3881AB2002AE1
:10A7A00006DB204805B0F0BD8842F6D0646ADEE7DB
:10A7B0005B045B0CA380F4E7F0682A88002807D1CB
:10A7C000F5600123184968460BF01EF80020E9E700
:10A7D000010003001C88944206D25C6A1900002C18
:10A7E0000DD02300F6E723001C88944207D15F8830
:10A7F0006C88A74203D25C6A1900002CF3D1814215
:10A8000009D10B889A4204D305D148886B889842B5
:10A8100001D96962D4E74B6A6B624D62D1E70348A4
:10A82000C0E7C04616FCFFFFFD03000017FCFFFF5A
:10A83000064B10B51A00040008322C330260436046
:10A840000430FEF739F9200010BDC046C093020065
:10A8500008B4024B9C46043808BC604731A801008C
:10A8600008B4024B9C46043808BC6047C56002002F
:10A870000C4A002311002C32083110B50381837279
:10A880004260C3600361436143830160040004309C
:10A89000FEF704F9044B1A68002A00D11C6020005E
:10A8A00010BDC046C0930200C4260020F7B50E00BC
:10A8B0000125C4680192002C36D0238832889A4240
:10A8C00001D0002B23D1638872889A4201D0002BDB
:10A8D0001DD1FEF757F80123002806D0C022A38817
:10A8E0001340C03B5A425341DBB2019A934219D103
:10A8F000A7883BB2002B15DB10223100A0180EF008
:10A900004CFB40231F4204D020000BF0E4FB646AA0
:10A91000D1E7FEF737F80028F6D021000348FEF70C
:10A92000E1F9F4E70025F2E72800FEBDD760020058
:10A9300008B4024B9C46043808BC60475F620200C2
:10A94000F0B587B001930EAB1B88060003930D9BF7
:10A950000D000093019B02920C9F002B3DD0002F15
:10A9600002D1009BDB0738D52820FEF771FA0400DE
:10A9700010300AF03FFF6B461B892580638018204A
:10A98000FEF766FA0500009B08220593019B002153
:10A9900003600C3004970EF01CFB082204A9281D4C
:10A9A0000EF0FBFA0E4B02226B6100230399E36069
:10A9B0002362636233680A43A560A2805B6821005A
:10A9C00030009847002806D020000AF038FE20000A
:10A9D000FEF75EFA034807B0F0BD0348FBE7C04648
:10A9E0009962020016FCFFFF17FCFFFFF0B50400A0
:10A9F000160000258380164A164B8571026021815E
:10AA000046810573186889B08C46A8421DD0124A49
:10AA100005950492C02202926A4604AB82CB82C2A0
:10AA200023002A006146FFF78BFFC022094B0A4929
:10AA3000186802926A46069106AB079582CB82C2DD
:10AA400023002A003100FFF77BFF200009B0F0BD92
:10AA500004940200C4260020C363020030B5002421
:10AA600003730123034D84710560818082734373F6
:10AA7000846030BD1C94020070B5040000250C4BAE
:10AA80000E000833858085710360210018300BF0BB
:10AA900050FD2000210020300BF06EFD054BA680FC
:10AAA000E5802572E5602561656120001C6070BD50
:10AAB0002C940200CC2600208379DB0702D5C160EC
:10AAC000002070470048FCE716FCFFFF8379DB0796
:10AAD00001D5C06870470148FCE7C04616FCFFFF7F
:10AAE00070B545690400002D22D0037A032B21D8CC
:10AAF000FFF7ECFFA8622C20FEF7AAF92C22002118
:10AB000005000EF066FA002263695A6223699342D7
:10AB100008D1636923610020237A656101332372C0
:10AB200070BD13005A6A002AFBD162695A62F2E7CB
:10AB30000148F5E70148F3E717FCFFFF13FCFFFFAF
:10AB4000144B70B55A68144C002A03D000225A6086
:10AB50000132A2601A69002A17D0002119618023EE
:10AB6000DB000E4DE3582868012B0FD1A923DB0031
:10AB7000E1584942FFF7A0FF2868FFF7B1FF2B68B3
:10AB80005A69074BE2500123A36070BDFFF794FFA1
:10AB9000F9E7C046FC10004000100040CC26002021
:10ABA0000405000003000069002809D00221054ABD
:10ABB000D167426A1A611A7A013A1A72024B196015
:10ABC0007047C04604E100E000E100E010B5002954
:10ABD00003DB024B19600DF0ADFF10BDD026002045
:10ABE00070B504001E0004AB1D7804F00FFD2000BA
:10ABF0000E4B40302360FEF771FA230001364C33D0
:10AC0000013522001E701D730023E1214E32A36422
:10AC10006365138053809381D381013B200063647B
:10AC20004902FFF7D3FF200070BDC04668920200C2
:10AC3000F7B580277F053D697C690822113C6C438C
:10AC40000600210068460EF0A8F9104B009A9A42BF
:10AC500019D00093002301937969300013396943B7
:10AC60000BF09FFC019A009930000BF0B2FC210020
:10AC700030000BF096FC7969AB0813396943220068
:10AC800030000BF098FC0198FEBDC046FECA0000E3
:10AC9000F0B50D00A9B00D9200213022060010A8D9
:10ACA0000B930EF096F928000EF0D3F9431C0C9389
:10ACB000102B00D9B5E00B9B202B00D9B1E0290067
:10ACC00030000BF0B3FC071E50D129000C9A10A8DD
:10ACD0000EF063F90D990B9A14A80EF05EF980231B
:10ACE0005B051A695F690C92113F7A4330005D6918
:10ACF0000B92FFF79DFF3022002104001CA80EF0EC
:10AD000068F9290000270C9B1339594330000BF0D8
:10AD100048FC0D9730257D430B9B0833ED18A74267
:10AD200042DA290030221CA80EF037F910A91CA81D
:10AD30000EF085F9002827D13C49300022000E9101
:10AD40000F940BF046FC6A46099513AB23CB23C244
:10AD500023CB23C223CB23C23000129B1099119A1C
:10AD60000BF045FC01230D930137D3E710300B9A0C
:10AD70000D990EF003F904003800FEF789F8002C55
:10AD8000A3D1200029B0F0BD6A4609951FAB23CBA3
:10AD900023C223CB23C223CB23C230001C991D9A8C
:10ADA0001E9B0BF024FCDFE7E5433023ED17254025
:10ADB0005D430B9B08355D190D9B002B1DD10C9B32
:10ADC0003021981E05F0CEF9A0422CD0174901344D
:10ADD000300022000E910F940BF0FBFB6A460995A0
:10ADE00013AB23CB23C223CB23C223CB23C23000FC
:10ADF0001099119A129B0BF0FAFB0B9930000BF093
:10AE0000D0FB80235B0559690C230C9A13396343EB
:10AE10004A430233110030000B9A0BF0CCFB0024A4
:10AE2000AFE7034CADE7034CABE7C046FECA0000FA
:10AE300017FCFFFF13FCFFFF70B50400A280FA228D
:10AE4000002308000C49920008312160A371606161
:10AE5000E260A360638209490BF0E8FB051E09D09C
:10AE6000010020001031022212300EF096F8280066
:10AE7000FEF70EF8200070BD4494020071A102009C
:10AE800030B50225837987B004002B4204D1FDF749
:10AE900005FEA3791D43A57120000BF011FC0028CD
:10AEA0001CD06B46DD1C28000BF001FC2B78002B1E
:10AEB00017D001A80BF0F9FB0321019AD3170B401F
:10AEC0009B189B102382FEF78BF8E368A188181863
:10AED0000123A0601A0002A80AF096FC002007B027
:10AEE00030BD0122064B1A60064A51680029FCD089
:10AEF00000215160044A1268019201225A60DBE786
:10AF000000C00040FCC0004008C50040022802D13B
:10AF10000122014B1A707047CE29002070B5064CF3
:10AF200005002378002B04D1044802F01FF9012307
:10AF30002370280070BDC046CF2900200DAF01004E
:10AF400070B50C000AF07FFA002810D00023144DD1
:10AF5000A40A2B7020000BF0C7FB002803D00A20A6
:10AF60000DF0EFFEF6E72B78002BFCD070BD022130
:10AF70000C4B0D4A99508021C90008005D58002DE6
:10AF8000FCD0A121C9005C5019580029FCD0002137
:10AF900099508021C9005A58002AFCD0E6E7C046E3
:10AFA000CE29002000E0014004050000F8B50C00A7
:10AFB00015001E000AF047FA002811D00023174F91
:10AFC0003B703200290020000BF08CFB002803D0DE
:10AFD0000A200DF0B6FEF4E73B78002BFCD0F8BD5C
:10AFE00001210F480F4B844619508021C9005A583F
:10AFF000002AFCD080270022FF00964207DD910046
:10B0000068586050D9590029FCD00132F5E7002278
:10B0100061465A50DA59002AFCD0E0E7CE290020D8
:10B020000405000000E0014010B50400054B0833A2
:10B0300003601C300AF04DFB200018300AF049FB79
:10B04000200010BD5C940200FF23F0B52C4D8DB0A4
:10B050002B700023040069460088009304F00EFA68
:10B06000002802D16B469B782B70264E3368DB6834
:10B07000002B07D1002320881A0019000BF038FBA1
:10B080000DB0F0BD2B78032BF4D81F4901A8FDF7B4
:10B09000EBFF336801A9DE6804A80AF071FB04A97C
:10B0A00030000BF0F6FA0027060004A80AF011FBA6
:10B0B000BE421ED031002022103104A80DF06DFFD9
:10B0C0003000FDF7E5FE297804ABC90059180822C5
:10B0D00002A80DF062FF20880123082202A90BF0CC
:10B0E00007FB0137002804D12088084A0C210BF007
:10B0F000FDFA01A80AF0EDFA002FBBD0C0E7C04668
:10B10000F0210020E026002081A10200FFFF0000C6
:10B11000F0B5837991B004005B071BD5FDF760FFA4
:10B1200000232269801A9941994203D1F423FF3305
:10B1300098420FD9A068002808D0364B1D880CF023
:10B1400022FC036815221B6A290098470422A37970
:10B150009343A371A3799B0759D52F4D2B68DB68C7
:10B16000002B50D02D4B1B78032B4CD8294B2C494E
:10B170001B8804A80193FDF777FF2B6804A9DE68FC
:10B1800008A80AF0FDFA08A930000BF082FA0700BF
:10B1900008A80AF09EFA02AB9E1D082332003380F5
:10B1A00006A9073B01980BF0A5FA002F08D039003B
:10B1B0002022103108A80DF0F0FE3800FDF768FEDF
:10B1C000164B32881B7806A9DE0008AB9E193000AA
:10B1D0000DF0D4FE002813D0082206A930000DF08F
:10B1E000DCFE2B6804A9DD6805A80AF0C9FA202353
:10B1F00008AA05A928000BF052FA05A80AF069FA76
:10B2000004A80AF066FA0222A3799343A37111B04D
:10B21000F0BDC04678290020E0260020F021002063
:10B2200081A10200F7B5089E0500152922D801204A
:10B2300007008F40244C27421CD0E97FCC181F2CDC
:10B2400041DC69183418A14210D80021C8B28342E9
:10B2500004D9545C701884700131F7E732789A1879
:10B260003270EA7F9B18EB7700202CE00878C854F6
:10B270000139E8E73478013CE4B2A34208D1002365
:10B28000D9B28C42F0D9D05CF11888700133F7E75D
:10B29000EF7F0120FF183F1B1F2F14DC0227A01C8B
:10B2A0007F423618381B0190E87F2F18BE4204D227
:10B2B0003078019FF0550136F6E7041B023CEC772D
:10B2C00028000BF061FAFEBDFC002000F0B585B04F
:10B2D00001930AAB1E880BAB1B78451C02930EAB87
:10B2E0001B78040003930B78170003704B8A10221D
:10B2F0004382013128000DF050FE6B469B88268367
:10B3000063836B461B7B002623776B4601221B7AE7
:10B310006761E683EB77A31CDA770C9B0C256362ED
:10B32000230020000D9A28331A705E709E702A0048
:10B3300031002C300DF04DFE2000074BE663A36377
:10B340002A00310040300DF044FE2000034B2665FA
:10B35000E36405B0F0BDC0460B670200FD66020065
:10B3600070B50D000CF00FFB04000368002D09D12F
:10B370005B699847FA2080006843074904F0F2FEB1
:10B38000E08070BD9B6898478542F3D22368200017
:10B390009B6898470500EDE771020000F0B50700D3
:10B3A0001600A1B002C704006B4918A81D000BF0DD
:10B3B00032FA331E03D030000DF04BFE83B201226F
:10B3C0000492002203920292023201920093320010
:10B3D00018A93800FFF77AFF23006049583318A8EE
:10B3E00007930BF018FA2B1E03D028000DF031FE46
:10B3F00083B201220492002203920292023201924D
:10B4000000932A0018A90798FFF760FF230054490A
:10B41000AC3318A808930BF0FEF9269B002B03D041
:10B4200018000DF016FE83B201220492002203924E
:10B430000292023201920093269A18A90898FFF707
:10B4400045FF631CFF33474918A809930BF0E3F944
:10B45000279B002B03D018000DF0FBFD83B20122C7
:10B4600004920022601C0392029202320192009325
:10B47000279A18A9FF30FFF729FF23005533FF3320
:10B48000394918A809930BF0C6F9289B002B03D063
:10B4900018000DF0DEFD83B2012204920022039217
:10B4A0000292023201920093289A18A90998FFF794
:10B4B0000DFF2300A933FF332C4918A80A930BF082
:10B4C000AAF9299B002B03D018000DF0C2FD83B20E
:10B4D00001220492002218AD0392029202320192DC
:10B4E0000093299A29000A98FFF7F0FE204B1B7859
:10B4F0000B93002B2DD1079B12971393089B0DAF35
:10B500001493631CFF331593099B1A4916930A9BE6
:10B51000380017930BF07FF91D2149203B7810224A
:10B520002B707B8A12AE6B8206ABC918C0180DF067
:10B5300034FD06232B756B469B8D2068AB83AE6173
:10B540000CF025FA036829001B6898470122084B74
:10B550001A70200021B0F0BD292A0000242A000022
:10B56000252A0000272A0000262A0000282A000099
:10B57000D02900200A18000070B5002504000A4BED
:10B580008580083385710360C1601830FDF7A6FD22
:10B5900020001C30FDF7A2FD044BA5601C600123B8
:10B5A00065612000A37170BD5C940200E02600205C
:10B5B000FA2130B585B005000123022289006846D2
:10B5C0000AF022F9074C2068002809D00BF05CF93A
:10B5D0002988054B22681980022391790B439371C6
:10B5E00005B030BDE02600207829002010B50C0001
:10B5F00007290DD880680CF0C6F9064B1957036867
:10B600005B6C9847431E9841034B4042184010BD65
:10B610000248FCE779A1020016FCFFFF17FCFFFFC0
:10B62000F0B5A44C0D00A544040007939AAB1B7819
:10B63000A14909A804930692FDF716FD20002900F0
:10B640001C300AF0A5F8C020800001F085FD08201C
:10B65000FDF7FEFB0600002100F0D0FF15ADA6604F
:10B6600000210C220EA80DF0B4FC2B000EAA83CAF8
:10B6700083C3924B2900EB60002330002B610CF058
:10B680006BF9A0680CF07FF908220021059016A83C
:10B690000DF09FFC1420FDF7DBFB29000200884B16
:10B6A0001593C8C9C8C2874B059EC3600023A43642
:10B6B00003613368002B00D0F5E03060A0680CF027
:10B6C00066F908220021060016A80DF082FC14205D
:10B6D000FDF7BEFB7C4B1593030086CD86C37B4BE9
:10B6E000C36000230361336B002B00D0DDE03063C7
:10B6F000A0680CF048F908220021050016A80DF0FA
:10B7000068FC1420FDF7A4FB714B15AE15930300E4
:10B7100086CE86C36F4B9835C360002303612B68C8
:10B72000002B00D0C3E02860012504AB1B7C04AAD9
:10B730002B4308A9280013740AF0DEFFA0680CF060
:10B740002AF9036864495B6A9847A0680CF023F9FA
:10B75000036862499B699847A0680CF01CF90023B4
:10B7600002680093166804992A00B047049B002BD6
:10B770000AD020000BF091F8032805DDA0680CF03A
:10B780000AF90368DB6898470EA80AF0F4FF2F2037
:10B7900004ABC0180AF0EFFF362004ABC0180AF063
:10B7A000EAFF3D20042504ABC0180AF0E4FF0EAB0D
:10B7B0000A93A06804AB5D770CF0EDF803680AA962
:10B7C0001B699847A0680CF0DEF803680AA95B6D56
:10B7D0009847A0680CF0D7F803680021DB6D984704
:10B7E000A0680CF0D0F8036802219B6D98470021F7
:10B7F0002000FFF7FBFE1820FDF72AFBA16800F0F0
:10B8000005FA374B374A1B68A1680393364B15A8D6
:10B810001B6800260293354B0CAF1B680193069BF7
:10B820001B685B190093324B12681B68FFF7B6FD6B
:10B830003020FDF70DFB079AA16800F0A7FAA06879
:10B840000CF0A1F8036839009B6A9847294BBE8029
:10B85000A0680C930CF097F803683900DB6A9847EE
:10B860002900A0680AF0E3FF099A09219378A068EB
:10B8700052190AF0EFFFA0680CF085F8C821067194
:10B88000A068FFF76DFD04AB1B7FB34204D0A06836
:10B890000CF079F80AF0B5FF09A809F01AFF952312
:10B8A0009B009D44F0BD036107E703611FE703614F
:10B8B00039E7C046ACFDFFFF74A202001967020021
:10B8C000B1B501002767020049B0010035670200E9
:10B8D0006367020043670200F9B801002DB9010057
:10B8E000DC260020D826002008200020D4260020B6
:10B8F0000C2000200800100013B506226846FDF752
:10B90000C3FB094B1C68002C0AD0694601A809F04A
:10B9100037FF200001A90AF0E1FF01A809F0D9FED4
:10B92000684609F0D6FE13BDE0260020002373B55B
:10B9300001AE0C0031000500019303F09FFD0028CB
:10B9400002D1B278064B1A70064B1868002806D050
:10B9500061426141044BC9B21D800AF0C7FF73BD4B
:10B96000F0210020E026002078290020F0B5040016
:10B9700097B0039107A89C490592FDF775FB9B4979
:10B9800008A8FDF771FB22000FAD28001C3207A9A3
:10B9900009F00DFF08AA290009A809F008FF2800EE
:10B9A00009F097FE92490AA8FDF75EFBA0680BF02C
:10B9B000EAFF03680DAE5B69984728000AF0DBFEDA
:10B9C000332004ABC0180AF0D6FE3A2004ABC018EE
:10B9D0000AF0D1FE412004ABC0180AF0CCFE80234F
:10B9E000DB00B380A0680D950BF0CDFF036831003C
:10B9F0005B6D9847A0680BF0C6FF036800219B6D44
:10BA00009847A0680BF0BFFF0700002506000A3723
:10BA10001F22002138000DF0DCFAFD7730000AF01B
:10BA2000E7FE0621A0680AF002FF099A092193782F
:10BA3000A06804320AF00EFFA0680BF0A4FFC82132
:10BA40000571A068FFF78CFCA0680BF09CFFFF2736
:10BA50002E000581A0680BF096FF0AF0D2FE039835
:10BA6000FEF728FC0AA90CA809F08AFE78220CA986
:10BA70000398FEF777FD0CA809F02BFE0399200030
:10BA80000AF047FF2000FDF709F8049501256369D6
:10BA90001D402DD057490BA800F0ACFC0BA90CA8F9
:10BAA0000BF0BAFE00220CA9130001920092039839
:10BAB000FEF7FCFC0CA80BF0A2FE049B002B42D16D
:10BAC000043F282F41DD0025FE2F00DC049D059852
:10BAD0000AF03BF8002806D0012362699A4313005C
:10BAE00004221343636100260BA80BF088FE049523
:10BAF00004226369134233D0FF210398C826FEF75E
:10BB000057FD0025B600A36902229B5EAB4222DDF1
:10BB1000200029B2183009F060FE002301000398CC
:10BB20001A00743000F0B6FC3000FDF74FF80398AF
:10BB30000AF028FAC820FDF749F802226369134287
:10BB400009D10135DFE70437BBE703980AF01AFA99
:10BB5000002FBCDDBAE7FA208000FDF737F8002699
:10BB6000022365691D421CD006331D4024D02249A2
:10BB70000BA800F03FFC0BA90CA80BF04DFE002217
:10BB80000CA90192009213000398FEF78FFC0CA8F9
:10BB90000BF035FE1948FDF719F80BA80BF02FFE36
:10BBA000174E6420FDF712F8164B01369E4200DC5A
:10BBB0006CE709F05AFC69E713490BA800F01AFC7E
:10BBC0000BA90CA80BF028FE2B002A000CA901954C
:10BBD00000950398FEF76AFC0CA80BF010FE0BA86A
:10BBE0000BF00DFEDDE7C0468DA102009DA1020015
:10BBF0009FA10200ADA10200F2A10200983A00004C
:10BC00008C0A00008B0A00002FA202000022594B70
:10BC1000F0B50833060003600F001000A9B0B16052
:10BC20000BAB991801324870102AFAD10F3A524CD6
:10BC30001A700E32105D991A0874013AFAD2997B83
:10BC40005A7B09020A4331000C31039125211B78EC
:10BC500013AD2B7002ABC918452302A81B186A82CA
:10BC6000180010220DF099F9039B64216B610123E8
:10BC7000002402AA2B7752181993093313701DABB5
:10BC80001C706D2302AA9B181C706E2321009B1848
:10BC90001EA80C22EC836C621C700DF09AF9374BD5
:10BCA0000C22210023A8AB63EC630DF092F9344B16
:10BCB00002AAEB6446239B180322DA7722002C6544
:10BCC0000595347306AD2B1901345A70102CFAD136
:10BCD00001232C482B700E33195CEA1A1174013BB6
:10BCE000FAD211212520AA7B6B7B12020BAC1343E5
:10BCF0002A78638202ABC9182270C01810220DF096
:10BD00004CF90123237505ABA36100233800A383FD
:10BD10000BF03DFE036821001B68984713ABDB8BDB
:10BD2000B068B3820BF033FE002203680092B18A40
:10BD3000039ADC680123A047B0680BF028FE0700D7
:10BD40001420FDF785F80022012304000261069209
:10BD500040C00832290007930DF01FF90A4BE36039
:10BD6000BB69002B03D13000BC6129B0F0BD236159
:10BD7000F9E7C046749402008CA202000B6702002F
:10BD8000FD6602009CA2020073690200F0B5002665
:10BD90000400734BDDB0083303608160C2608680AD
:10BDA000867132006F4947A80AF083FE23001433DE
:10BDB0000125042708931223009704950193089AFC
:10BDC000330047A9039602961DA8FFF77FFA3200B9
:10BDD000654947A80AF06DFE08202200009733004D
:10BDE00015AF10320495019047A90396029632A828
:10BDF000FFF76CFA32005D4938000AF05AFE230062
:10BE0000082004221C330993390033000495019063
:10BE100000920396099A029647A8FFF757FA320054
:10BE2000534938000AF045FE5420FDF711F805008B
:10BE3000200001231221042218300790049301915D
:10BE40000092390002003300280003960296FFF7A3
:10BE50003DFA2800474BA5620822EC620AA930305F
:10BE60000A930B960DF099F8434B0422AB63012320
:10BE700029352B7009992661E66107980DF08DF838
:10BE80000422079908980DF088F86621032304AA74
:10BE90008918CB77BA2104AA8918CB77872104AAFD
:10BEA00049008918A26ACB77911CA685CB771DAB78
:10BEB0000C9332AB0D930F9247AB32002F4910A871
:10BEC0000E930AF0F6FD3021452004AB5B181B7879
:10BED00012313B7004AB5B181B8811397B8204ABB9
:10BEE000C918C01810220DF058F804220CADA06833
:10BEF0003A75BD61BE830BF04AFD036839001B68CB
:10BF00009847822204AB9B181B885432238404ABCD
:10BF10009B181B885432A38404AB9B181B88A06811
:10BF200063840BF034FD07001420FCF791FF05003B
:10BF3000134B066108221093119610A910C00DF042
:10BF40002CF8104BEB60BB69B34206D1BD612000F9
:10BF5000FCF7A4FD20005DB0F0BD2B61F6E7C04604
:10BF600080940200CCA20200ACA20200BCA202009B
:10BF7000DCA20200856A0200F1690200ECA2020064
:10BF8000F1BF01001B6A0200F0B504000E001500AD
:10BF900085B01F000CAB1B881030019309F02AFC00
:10BFA000268065801820FCF753FF02AE05003300A1
:10BFB0000AAA03CA03C32F602800082700213A00F9
:10BFC0000C300DF006F83A003100281D0CF0E5FFAA
:10BFD000064B02226B61200000230199A5600A43F1
:10BFE000E360A2802362636205B0F0BD456A02008F
:10BFF000F0B50B898DB00593CB68060004934B8890
:10C00000828C9A420ED1049C049B059A9B181B1BA0
:10C01000032B3BDD62882188012308A809F0F4FB8B
:10C020000434F1E7428C9A4230D1049C049B059A77
:10C030009B181B1B032B29DD23882820069363886C
:10C04000F7680793124B089300230993FCF700FF4E
:10C05000C0236A460500029308AB03CB03C233003A
:10C060000699079A2800FFF78FFF3B6829005B6855
:10C0700038009847002807D0002D05D0280009F087
:10C08000DEFA2800FCF704FF0434CFE70DB0F0BD62
:10C09000036B020070B5040090B080680AF02CFDBC
:10C0A000022101401AD1A38D002B17D00C4B6A46F8
:10C0B00004931023E568A1850591029304AB41CB5D
:10C0C00041C20A00230006A8FFF75EFF2B6806A9FD
:10C0D0009B682800984706A809F0B1FA10B070BD17
:10C0E000036B0200002815D0006041608260C360CD
:10C0F000046145618661C761444604624C464462FE
:10C10000544684625C46C462644604636E46466379
:10C1100074468463002A06D0C46B043C043A256844
:10C120001560B442F9D18C6BA6464E6BB546002B18
:10C1300006D0CC6B043C043B1D682560B442F9D1A9
:10C140000C6BA446CC6AA3468C6AA2464C6AA146F4
:10C150000C6AA046CF698E694D690C69CB688A6804
:10C16000086849687047006041608260C36004618C
:10C1700045618661C761444604624C464462544648
:10C1800084625C46C462644604636E4646637446D9
:10C190008463C46B043C043925680D60B442F9D152
:10C1A000C7698669456904697047006041608260BB
:10C1B000C360046145618661C761444604624C46C0
:10C1C0004462544684625C46C462644604636C46BE
:10C1D00044637446846304697047846BA646446B69
:10C1E000A546046BA446C46AA346846AA246446A70
:10C1F000A146046AA046C769866945690469C3689F
:10C20000826800684168704710B5041E0CD00CF0BD
:10C2100020FF431EE3189C4208D222781978013B84
:10C2200021705A700134F6E7014810BD0020FCE788
:10C2300017FCFFFFF0B585B002900C1E2AD000233A
:10C24000C217161A56400193019B30005D1C6319FA
:10C250000A215F1E039304F0F5F84942303139702A
:10C2600030000A2104F008F847420600002F0FD1E1
:10C27000029B002B04DA2D23019D039A02351370D3
:10C28000002320006355FFF7BFFF380005B0F0BD65
:10C290000195D9E7004FF8E717FCFFFF10B5826062
:10C2A0004A4304004160002A0ADD074B90009A428D
:10C2B00001DD01204042FCF7CBFD2060200010BDD5
:10C2C00000230360FAE7C046FEFFFF1F4A688B6841
:10C2D00070B58360534304000D004260002B12DDF3
:10C2E0000A4A9E003000934201DD01204042FCF7E3
:10C2F000AFFD002320602A68D158C15004339E420C
:10C30000FAD1200070BD00230360FAE7FEFFFF1F93
:10C31000014B03607047C0469894020030B5006836
:10C320004488A1420CDA8588AA4209DA002907DB91
:10C33000002A05DB5443401800198371002030BDEA
:10C340000048FCE717FCFFFFF0B5070085B00E00C2
:10C350001D0000291FDD002B1DD004686388039396
:10C360008B4200DD0391A3880293934200DD029289
:10C37000002306340193019B029A93420EDA2900AE
:10C380002000039A0CF009FE3B68AD195B88E418A5
:10C39000019B0133EEE7024805B0F0BD0020FBE74A
:10C3A00017FCFFFFF8B504000D0016001F00002960
:10C3B00001DB002A02DA0E4B2360F8BD100048436F
:10C3C0000630FCF745FD206009F06CFA23685D80BB
:10C3D00023689E80002F06D03B00320029002000F9
:10C3E000FFF7B2FFE9E720000BF01EFAE5E7C046D1
:10C3F00098940200F0B5060087B00D1E04D1244BBE
:10C400000360300007B0F0BD00200F000400010001
:10C4100001903B78002B1AD03022524294469C4423
:10C420006246092A11D90A2B0AD1019B241801332B
:10C430000193A14200DA2100002004000137E8E75F
:10C440000028FBD001340020F8E70120F6E76A4617
:10C45000928809B212B23000FFF7A4FF33689C1D26
:10C4600003AB1F002A78002ACBD0110030390929EC
:10C4700003D81A7001330135F4E700221A70BB4269
:10C48000F9D938000CF069FD3B0020700134F2E767
:10C4900098940200F0B5040089B006A80E0002923C
:10C4A0001D00FCF75FFC236802995A88914235DA37
:10C4B0009B889D4232DA1F2E30D9079B01939E4202
:10C4C0002CDC0523002273430393069B0493039BF8
:10C4D00004999B18A03BCB5C00210593AE18029BEE
:10C4E000CF1823685888019087420EDA9888B042A6
:10C4F0000BDDDB1910270F41019870431B180598BD
:10C500000740781E87417F429F7101310529E6D19E
:10C510000132052ADBD1002009B0F0BD0048FBE75D
:10C5200017FCFFFFF7B50468070063880E1E019330
:10C530001EDD994218DA0023063400933B68009A06
:10C540009B889A4212DA019BA1199D1B2A002000A8
:10C550000CF023FD601931000BF058F93B685B8843
:10C56000E418009B0133E8E70BF05EF9002000E0DF
:10C570000048FEBD17FCFFFF10B50548054C2060C4
:10C5800009F093F9044A054920000CF0C2FC10BDE3
:10C5900098940200E426002000200020FF7702008B
:10C5A00070B5002817D1114D2E68002E11D108301A
:10C5B0000CF0BAFC066046600D4E04003368002B98
:10C5C00002D10BF01BFC306023682C609B00F358F9
:10C5D0006360286870BD0122064907480B68134054
:10C5E000F8D1026043600A60F4E7C046EC26002000
:10C5F000F8260020E8260020F0260020002370B551
:10C6000004000160436099420AD1064D2B68002B5B
:10C6100002D10BF0F3FB286023689B00EB586360AA
:10C62000200070BDF8260020436810B50400002BE0
:10C6300002D104480CF08CFB606803681B699847C2
:10C6400010BDC046FCA20200436810B50400002BD8
:10C6500002D104480CF07CFB606803689B69984732
:10C6600010BDC046FCA20200436810B50400002BB8
:10C6700002D104480CF06CFB606803685B6A984761
:10C6800010BDC046FCA2020000487047FFFF00003A
:10C69000F0B597B00593036807AD1B680491039349
:10C6A00011002B00060091C991C30024D36821001A
:10C6B0000C220CA8EB602C610CF08BFC22000B4BC5
:10C6C00010940F9311AB1C70191901344A70102C7F
:10C6D000FAD15A820193059B2A00009304990CAB6E
:10C6E0003000039CA04717B0F0BDC046B57A0200E9
:10C6F00070B5FC30046C0500002C0DD124200CF02A
:10C7000013FC064B44608361054B8460C460046184
:10C710004461C46103602864286C70BD7495020094
:10C720005C96020070B5FC30C56B0400002D11D181
:10C7300034200CF0F9FB084B85604360074B4561E2
:10C740000361074B0562C361064BC5628362064BFA
:10C75000E0630360E06B70BDA49502009495020055
:10C760000496020014960200249602007FB5037915
:10C770001548002B22D0154E154C33782000002B85
:10C780001CD102AD28000BF072F9002810D16B8883
:10C79000592B0DD12B78AA88D91F012910D80092C6
:10C7A0000C4A2021200008F0E9F80123337004E04E
:10C7B0002022094920000CF053FC200004B070BD79
:10C7C0000092064AEDE7C0461FA30200F1290020AF
:10C7D000D129002041A3020039A302005EA3020078
:10C7E00010B50400024B08C00BF021FA200010BD68
:10C7F0009495020010B50400024B08C00BF02CFA0F
:10C80000200010BDA4950200064B70B50400036023
:10C810004068002804D005690CF082FB2800F8E786
:10C82000200070BD84950200064B70B504000360C3
:10C830004068002804D005690CF072FB2800F8E776
:10C84000200070BDB4950200064B70B50400036073
:10C850004068002804D005690CF062FB2800F8E766
:10C86000200070BDC4950200064B70B50400036043
:10C870004068002804D005690CF052FB2800F8E756
:10C88000200070BD04960200064B70B504000360E2
:10C890004068002804D005690CF042FB2800F8E746
:10C8A000200070BD14960200064B70B504000360B2
:10C8B0004068002804D005690CF032FB2800F8E736
:10C8C000200070BDA8940200064B70B50400036000
:10C8D0004068002804D005690CF022FB2800F8E726
:10C8E000200070BDB8940200064B70B504000360D0
:10C8F0004068002804D005690CF012FB2800F8E716
:10C90000200070BDC8940200064B70B5040003609F
:10C910004068002804D005690CF002FB2800F8E705
:10C92000200070BDD8940200064B70B5040003606F
:10C930004068002804D005690CF0F2FA2800F8E7F6
:10C94000200070BD7495020070B5FC30046C0500C9
:10C95000002C0DD124200CF0E7FA064B44608361D3
:10C96000054B8460C46004614461C4610360286451
:10C97000286C70BD749502005C960200104B10B5D7
:10C98000083303600F4B0400C36080230E4A5B0032
:10C99000C250C018FDF764FB20000C4BB830E360B8
:10C9A000FFF7B2FF2000AC30FFF79EFF2000A03061
:10C9B000FFF78AFF20006C30FFF776FF200010BDE4
:10C9C00088960200D09602003C980200E89402008B
:10C9D000F8B505000400AC356B68AB60A8680028AA
:10C9E00007D0C36821009847AB68002BF4D01B69BF
:10C9F000F3E72500B0352868002804D006690CF05C
:10CA00008FFA3000F8E72200FC21286058321378B2
:10CA10000B40137023005C33187020000A300BF0B9
:10CA2000E4F9200034300BF0E0F9606E002804D007
:10CA300005690CF075FA2800F8E72500983560665E
:10CA40002868002804D006690CF06AFA3000F8E77C
:10CA50002600A43628603568002D05D02F692800EF
:10CA60000CF05EFA3D00F7E72000356029000C224B
:10CA70006C300CF0AEFA2000074BE567A367290085
:10CA80000C2280300CF0A5FA2300044A8C33903439
:10CA900028001A602560F8BD997A02008B7A02009E
:10CAA000444AF0B50600C260A022434B1636083354
:10CAB00003600100002342820400320085B003714C
:10CAC0008360037483823531137001329142FBD14C
:10CAD000802580222000AD00D201F377358411003B
:10CAE00000933830002300F039FF23002100403349
:10CAF00003931A002B0000255F31157001328A4222
:10CB0000FBD1039AFC21D577220060321380137980
:10CB100020000B401371230068331D70274B2567DD
:10CB2000E3660C22002178300CF053FA2300270032
:10CB300088331D60224B0837FB67843700210C22A5
:10CB400038000CF046FA1F4B1F4AFB602300A0334D
:10CB50003D611A601D4A5D60DA601D4A1D619A617F
:10CB6000DD6130000BF041F903980BF03EF9194BF1
:10CB7000601CE3602300C4331D705D709D70FF3046
:10CB800002F0FCFC8C235B00E55023001933FF33DB
:10CB90005D618023104A5B00E250230001222000E7
:10CBA000FE3352425A86023B9D63DD631D6405B02D
:10CBB000F0BDC046E894020088960200A8940200E6
:10CBC000997A02008B7A0200B8940200C89402009D
:10CBD000D8940200D09602003C98020070B5074C31
:10CBE0002368002B07D1A02040000CF09DF9050020
:10CBF000FFF756FF2560206870BDC046FC26002068
:10CC000070B50C220D00002104000CF0E2F90023A5
:10CC10002361024B25602000E36070BDA77A02000B
:10CC200070B500250400254B85800360244BC5604A
:10CC30008360244B85614361234B45620362234B30
:10CC40000563C362224BC563836329004430FFF749
:10CC5000D7FF200029005830FFF7D2FF200029001D
:10CC60006C30FFF7CDFF1B4B220023602300803286
:10CC7000F83320C29342FCD126001D00E936FF366E
:10CC800028000822002108350CF0A3F9AE42F7D1A4
:10CC90008E2300229B00E11804C6B142FCD18E23F2
:10CCA00000219B00E2540C4B0C4AE318A218198097
:10CCB00002339A42FBD1200070BDC046D4950200D9
:10CCC0008495020094950200A4950200B495020098
:10CCD000C49502005C9702003A0200006202000064
:10CCE000024B0B60092313607047C04683A3020008
:10CCF00010B504000020FFF771FF03681B69984717
:10CD00000300F3331C7086235B00C0500300002136
:10CD1000044AFC335A61044A99615A62F4300BF0B8
:10CD200093FE10BDC5800200D7800200012110B51E
:10CD3000044A080002F0D6FB0023984200D00B33CF
:10CD4000180010BDF1CC0100F0B593B001900020A7
:10CD50000C00FFF743FF03685B6A984700F068FC2C
:10CD600006AB00280ED000221A7105AA06920822EE
:10CD700018001A730AAA9A6000F028FD002803D050
:10CD800013B0F0BD18711873002727732771019B2A
:10CD9000BA331B78BB4242D907237B431A0001995F
:10CDA000BB32CB18BB331B788A180292022B2ED1D0
:10CDB000002506AE337BAB4223D9AB000393089B1F
:10CDC000AA00995802980BF01FFC00281CD0B368E9
:10CDD0009C46AB001900237B614402939A000868CB
:10CDE000A368D050029B01332373337B5A1E9542B4
:10CDF00005D00C481B1860469B001B580B6006AB07
:10CE00001A730137FFB2C2E70135EDB2D1E72379DA
:10CE1000216802989A00013350502371F1E70020F5
:10CE2000AEE7C046FFFFFF3FF0B50A7804009BB0B5
:10CE30000D000220012A08D04B88032A07D1A03B0D
:10CE400021499BB210008B4207D91BB0F0BD203B9B
:10CE50001E4A9BB203209342F7D81D4BAA88032099
:10CE60009A42F2D80AAB009312AB02936A460023AF
:10CE7000260013711373B8363378002B1DD104AF1D
:10CE80001822002138000CF0A4F82B7838003B70F1
:10CE900033783B726B46FB606B883B82AB887B824E
:10CEA0000BF034F802000320002ACED101235834BD
:10CEB000217810000B432370C7E769462000FFF775
:10CEC00043FF0028DBD0C0E7603F0000E03F0000E8
:10CED000FF3F0000F0B59DB01E006B4604001A70C5
:10CEE000581C0622229D0CF058F8002E2ED03288B5
:10CEF00002AB1A8072885A80B2889A80F288DA80EF
:10CF00000CAB04AE049314ABB36027000023B93715
:10CF1000337133733B78002B1ED101223B780227FB
:10CF200008A9134058000B784E60BB430343002D03
:10CF30001AD12000323000789343104003430B7025
:10CF4000A38D0B81E38D4B81238E17E01A4B029347
:10CF500096239B040393D3E731002000FFF7F4FEF0
:10CF60000028DAD01DB0F0BDA879934310400343E8
:10CF70000B702B880B816B884B81AB8802AA6846AB
:10CF80008B810AF0D9FF030000208342EAD00630EB
:10CF9000082BE7D006D80130042BE3D0834209D117
:10CFA0000420DFE70520112BDCD0044A9342F7D0A0
:10CFB000102BF5D00B20D5E73200640002320000C0
:10CFC00010B5040001F040FA034B1B68002B01D0A0
:10CFD0002000984710BDC04604270020F0B58BB054
:10CFE000050002F08BF80020FFF7F8FD036807004A
:10CFF0001B6998473B6804009B69380098473B6869
:10D0000006005B6A380098470300288810380B2810
:10D0100062D803F09DF8063E6161615B6161616702
:10D020006179AF88200039000BF0EEF822006B7BAD
:10D03000583201931378A8799C46022361460B432A
:10D04000137004AB1F80012304AA9370D0701300E7
:10D050006A461279E91D9A722B000622163305A83A
:10D0600009930BF09AFF29000B2004AB06220E3126
:10D07000C0180BF092FF94346368A360A068002886
:10D080002AD0C36804A99847A368002BF4D01B6971
:10D09000F3E720002F49AF880BF0B6F822000220FA
:10D0A00058321378A9798343137004AB1F809970A9
:10D0B000A0346368A360A06800280DD0C36804A9E9
:10D0C0009847A368002BF4D01B69F3E75B69A88835
:10D0D000A91D002B00D09847290030000BF07AF9E9
:10D0E0000BB0F0BD636E002BF6D0AF79A366A06ED7
:10D0F0000028F1D0C36839009847A36E002B01D1F6
:10D10000636EF3E71B69F1E7012269460D27AB7BEC
:10D11000EF571A4001925A07920FDB080A720B73FD
:10D120000622E91D04A80BF038FF6A46127904AB09
:10D13000DA716A46127A9F711A726A46127B20006F
:10D140005A722B000F3307938C348030236804A964
:10D150009847C1E7FFFF00000723D72802D9024BF9
:10D16000186000231800704700270020014B18604A
:10D170007047C046042700201FB58022A323D20594
:10D18000DB00D3580820DB0700D405301C4B4822B5
:10D190001C4900F023FD00280AD080B2002807D1E6
:10D1A000BFF34F8F184B194ADA60BFF34F8FFEE77A
:10D1B000002302A8029301330370154B1B684360E0
:10D1C0000BF02CF8002802D0072005B000BD6846FF
:10D1D0000BF022F80028F7D169460BF01BF8002865
:10D1E000F2D10C4800F02AFD80B20028EDD10A48A7
:10D1F00000F02EFD80B20028E7D100F0FFFAE4E74E
:10D20000218202000827002000ED00E00400FA055A
:10D2100000270020DDCF0100C1CF010080B200282F
:10D2200007D1BFF34F8F034B034ADA60BFF34F8F31
:10D23000FEE7704700ED00E00400FA0513B504684E
:10D240000093A46813000A000149A04716BDC04618
:10D25000FFFF000037B506AC257804680195009300
:10D26000246913000A000149A0473EBDFFFF0000EA
:10D27000F0B587B00D00002469466F4616004C805B
:10D280000DAA0CA90988127839800193A2421BD1FA
:10D2900001004479F83194420DD908310F00083F5C
:10D2A0003F88B7421BD13021203292001258013200
:10D2B000D27F0A4215D16A46310028000AF0B8FF31
:10D2C000002808D1062407E06A46310028000AF049
:10D2D000AFFF002800D00324200007B0F0BD0132CA
:10D2E000D9E710210A4051424A41002002ACE360D4
:10D2F0000CABA360174B01322680A270A0809D4228
:10D3000007D1FFF76BFC03681B6998470AF07FFFA2
:10D310000500210028000AF08FFF002482B2A242FB
:10D32000DAD0112A13D00BD8082ACBD06A463100A4
:10D3300028000AF07DFF05240028CDD0023CCBE771
:10D34000054B9A4203D0054B9A42EFD1BAE7052428
:10D35000C2E7C046FFFF00000330000001340000B8
:10D36000F0B5050099B008002E240C9100F070FA79
:10D3700006ABE4181290220012A901200AF056FF11
:10D38000002802D0032019B0F0BD23880C9A0B901E
:10D3900093830C9B0B9A1B7D934200D8C6E06B795C
:10D3A0001D2B01D90720EEE70C9B9B690D930B9B6E
:10D3B0000D9A9B009C586369002B07D1638B002B4F
:10D3C00004D1631CDB7F022B00D1AAE0200000F017
:10D3D0003FFA23000026283312900E960D960F93E5
:10D3E0000F9B1B78B34221D9626AB3009F58342245
:10D3F00006AB9B1800221A700023002113AAD21832
:10D4000001335170102BF8D1462206AB9B184A4AC3
:10D4100013A938001A800AF08EFF002803D07B6918
:10D420000D937B8B0E930136F6B2D9E76979A31C75
:10D430001F31C9006918621CDB7FD27F089121006F
:10D440002A310978002007912100293109780691B5
:10D450000E9905910D990491217F0391218B0291E1
:10D46000618B01916169009112A90BF004F9002808
:10D4700000D087E76B7907001A00203292001F3333
:10D480005451DB005B5BE3836B7901336B712300E9
:10D4900028331B78BB4244D98E239B00EB5C132BB3
:10D4A00000D97FE7626ABB009E580023180013A9C9
:10D4B0000B70CA1801335070102BFAD11E4B30007C
:10D4C0004B820AF038FF0D90002827D1300000F081
:10D4D000BFF98E2189006A5C738B1E32FF325200C5
:10D4E000AA180292327F12900192328B12A90092F6
:10D4F00072690D9800F0FCF9002800D042E78E21F7
:10D5000089006A5C531CDBB26B541D337A32FF33E3
:10D5100092005B005651EB185B88F3830137FFB232
:10D52000B5E70B980130C3B20B9332E72B7900209B
:10D5300001332B7127E7C0460129000070B50500B3
:10D540000AF081FC04000620002C1CD1280078225F
:10D55000210080300BF03DFD2800E93050222100F1
:10D56000FF300BF036FD280008222100F8300BF0C8
:10D5700030FD054B2822E81821000BF02AFD8E23F0
:10D5800020009B00EC5470BD3A02000070B50020F2
:10D590000D00FFF723FB03685B6A98472B780400B4
:10D5A000142B1ED003D8132B0CD0002070BD152BCC
:10D5B0001FD0222BF9D16B6818882369002BF4D077
:10D5C0009847F2E76B68012518889B786468190012
:10D5D0005A08DB0629402A405B0F002CE5D0A04703
:10D5E000E3E76B6818889978A368002BDDD098472B
:10D5F000DBE76868827813091207120F012A03D04B
:10D60000022A0BD0002106E0013BDBB20021022BF5
:10D6100001D8064AD15C0088E368E6E70421012BC3
:10D62000F9D00131022BF6D0ECE7C0468CA3020002
:10D63000014B18787047C046F2290020F0B51D0054
:10D640000023304F87B000923A7806000C009A42CF
:10D6500004D100F02DFF002803D00B23180007B0E1
:10D66000F0BD002D0ED003A9222003950AF0CAFFB9
:10D67000002807D006230828F0D011384342434140
:10D680000433EBE7002302AA1000137001F0F0FA54
:10D690000028E2D101251C4902220B782E40AB4321
:10D6A0003343072693430193009B2C403340934020
:10D6B000AC409C46019B02AA1C431C239C4363462E
:10D6C0001C430E239B181880104B0C7003930223ED
:10D6D00003AC2371093002AB0522C0180BF05DFCCE
:10D6E00021000B4801F02EFB002807D0330004284E
:10D6F000B4D0013B0828B1D00533AFE73D7003003B
:10D70000ACE7C046F2290020F12100208DD50100B0
:10D71000F329002010B5074801F0ECFB00239842E4
:10D7200006D00733042803D0013B082800D0053376
:10D73000180010BDF3290020002373B501930F4B8F
:10D7400001AD1B780E0029002B7001F097FE041E1E
:10D7500005D00423052800D00733180076BD31001A
:10D76000280001F029FB23000028F6D00723042815
:10D77000F3D0013B0828F0D00533EEE7F329002071
:10D7800073B5114C0E0005000522210068460BF010
:10D7900004FC012E03D0022E10D002230CE0022242
:10D7A0002378B34393436946280023700AF028FF87
:10D7B0000023984200D00B33180076BD0123227855
:10D7C0001343B343EFE7C046F1210020094B10B5E6
:10D7D0001A7801000923002A09D0074801F024FB28
:10D7E0000023984203D003330E2800D003331800DF
:10D7F00010BDC046F2290020F32900201FB50023E8
:10D8000002ACA380104B01A80293C8235B00E38005
:10D81000803BFF3B037005220C490AF00DFF80B2EC
:10D8200000280FD1802080000AF002FF80B200287B
:10D8300008D120000AF0FEFE80B2002802D10AF0D2
:10D84000F5FE80B204B010BD280090018FA3020045
:10D85000F0B5438A85B00193037805000126002BBB
:10D8600035D0214A00241100831900931F4B1F68F3
:10D87000A74210D00023981E012804D90098D65C36
:10D88000C05C86422CD10133102BF4D111235C43B0
:10D8900009190E7C1BE000980AF0D6FE2B780700D1
:10D8A0000600002B01D112350095042C0FD0112554
:10D8B00065430D4B10225D19009928000BF06DFB9C
:10D8C0000023AB70EB70094B01342F741C6003AB69
:10D8D0009E705888019B00040343180005B0F0BDFA
:10D8E00001341132C4E7C046F4290020502700203B
:10D8F000F0B589B000930EAB1B8805000F00160031
:10D90000019303220FAB002102A81C780BF061FBEE
:10D9100001230E201C40DB181C4302AB9C700E4BF5
:10D9200002AA138002AB06220021C0180BF051FBA3
:10D9300003AC02AB63606B461B88109A23816B4675
:10D940009B88210028000397A38126610AF078FEB6
:10D9500080B209B0F0BDC04611110000F7B5FA263B
:10D96000B6007143009308AB1B780400080014490B
:10D970001700019302F0F6FB85B230002580784352
:10D980000F4902F0EFFB6B461B8880B2A3806B4609
:10D990001B796080A371032D01D804232380802389
:10D9A0002288DB019A4200D92380032801D804226F
:10D9B000628062889A4200D963802000FEBDC04622
:10D9C00071020000F0B50D788FB0002D00D098E006
:10D9D000514C02AB9A1D2100082306881380343174
:10D9E000073B30000AF0F1FE4C4B1B689847B12012
:10D9F0000AF0EDFE002803D02A002900FFF70EFCF4
:10DA00000AF0E7FE002803D000221100FFF706FC11
:10DA1000434D68690AF0DFFE0195002803D000221B
:10DA20001100FFF7FBFB00233E4D3000290004935B
:10DA300001F024FD061E3AD108A9280001F0CCFA15
:10DA4000071E4CD10C9E07223100200010310BF034
:10DA5000A4FA31001022E01D0BF09FFA2000089E6E
:10DA60001122310018300BF098FA200031002A30D2
:10DA700012310A220BF091FA20000AF0AEFE0028C3
:10DA800003D03A003900FFF7C9FB012300240493B7
:10DA90000333069305A904AB28000793059401F00E
:10DAA00055FAA04203D022002100FFF7B7FBC022A5
:10DAB00080211D4BC9035200995019680120002391
:10DAC0001A4C02009A400A4200D0E2670133202B30
:10DAD000F7D1019B586900F0B5FE0FB0F0BD2100F1
